:020000040800F2
:10000000207D0020F58C0008AD670008AF67000870
:10001000B1670008B3670008B5670008000000007A
:100020000000000000000000000000002D4D00084E
:10003000B767000800000000D54C000825450008FF
:10004000D98D0008DD8D0008E18D0008E58D0008E0
:10005000E98D0008ED8D0008F18D0008F58D000890
:10006000F98D0008FD8D0008018E0008058E00083E
:10007000098E00080D8E0008118E0008158E0008EC
:10008000FB680008198E00081D8E0008218E0008EC
:10009000258E0008298E00082D8E0008318E00085C
:1000A000358E0008B9670008398E00083D8E0008BB
:1000B000418E0008458E0008498E00084D8E0008CC
:1000C000518E0008558E0008598E00085D8E00087C
:1000D000618E0008658E0008C36700082968000863
:1000E0006D790008698E00086D8E0008718E000819
:1000F000758E0008798E00087D8E0008818E0008BC
:10010000858E0008898E00088D8E0008918E00086B
:10011000958E0008998E00089D8E0008A18E00081B
:10012000A58E0008A98E0008AD8E0008B18E0008CB
:10013000B58E0008B98E0008BD8E0008C18E00087B
:10014000C58E0008C98E0008CD8E0008D18E00082B
:10015000D58E0008D98E0008DD8E0008E18E0008DB
:10016000E58E0008E98E0008ED8E0008F18E00088B
:10017000F58E0008F98E0008FD8E000800000000D2
:10018000018F0008058F0008098F00080D8F0008F7
:10019000118F0008158F0008198F00081D8F0008A7
:1001A000218F0008258F0008298F000800F5E070D6
:1001B0000268914203D343681A44914202D3806893
:1001C0000028F5D17047DFF86C17086890B94FF434
:1001D000805048604FF480324FF0FF30C8600861B3
:1001E0000420DFF854378A604861C3F8BC01DFF8A7
:1001F0004C0708600120704701F1080313F0070F56
:100200000EBF0023C3F1080303F007031944D21AF9
:100210008161C26042F001034B60091D4FF0280C60
:1002200041F802C0DFF80C271369C36170472DE95C
:10023000FC4B074601F1080010F0070F0FBF89467D
:10024000C0F1080000F0070001EB000902F108010D
:1002500011F0070F06D002F10800C0F1080000F00D
:10026000070002441546A5EB090009EB0306A0EBC5
:10027000030B43F00303C9F80430AE4228BF01F07A
:1002800005FA2879C10758BF01F000FABBF1100F39
:1002900038BF01F0FBF9B869854208D1F9688B4491
:1002A000C7F80CB0BE614BF00100706051E1786995
:1002B00085420AD1B9688B44C7F808B07E614BF01B
:1002C0000100706046F80BB043E1686800F003017C
:1002D000012940F0AC80C008C0000190C0081F2870
:1002E00039D8AC68D5F80C800090454508BF01F0BE
:1002F000CDF9A54208BF01F0C9F968680099C008A6
:10030000C000B0EBC10F18BF01F0C0F9009907F1B0
:10031000280000EBC100844206D039698C42C0F04D
:100320008180E268AA427DD1A04506D10098396853
:10033000012383409943396076E0804506D03969CE
:1003400088456FD3D8F80800A8426BD1C4F80C8058
:10035000C8F8084068E0EC68D5F81880AC420CD0CA
:10036000A8683969884223D3C268AA4204BFA16839
:10037000A9421DD1C460A0601CE005F114010C6805
:1003800034B905F110010C68A4B101E011460C6804
:1003900004F114021068002802BF04F11002106872
:1003A0000028F3D13869814202D300220A6001E0BB
:1003B00001F06CF9B8F1000F36D0E96907F59870D3
:1003C00000EB81000268954208D10460A4B9E86995
:1003D0007968012282409143796025E0386980453F
:1003E00008D3D8F81010A94214BFC8F81440C8F8B0
:1003F000104001E001F04AF9B4B139698C4211D3DF
:10040000C4F81880286928B1884226BF2061846119
:1004100001F03CF9686938B13969884202D36061FA
:10042000846101E001F032F901996D188B4469682B
:100430004908490069604BF0010070604FEADB0435
:1004400046F80BB01F2C23D807F1280000EBC40896
:100450004546BBF1100F38BF01F018F9386820FA93
:1004600004F1CA0705D4012101FA04F404433C60F5
:1004700007E0D8F80800396988422CBF054601F02A
:1004800005F9C8F80860EE60B560C6F80C8060E059
:100490005FEA1B2008BF002123D0B0F5803F28BFB2
:1004A0001F211ED2A0F58072120C02F008029040AB
:1004B000A0F58051090C01F004018840A0F58043AB
:1004C0001B0CC2F10E0203F00203521AD21A98401A
:1004D00002EBD032D01D2BFA00F101F0010101EB4B
:1004E0004201F161002307F59872736102EB81000C
:1004F00033617A6822FA01F3DC0707D4012303FA97
:1005000001F1114379600660B0611DE002681F29A6
:100510001DBF4908C1F119010BFA01F1594600E06C
:1005200002465068C008C000584516D002F11003BA
:10053000C80F03EB8003490018680028F0D1386920
:10054000834204D31E60B261F660B66001E001F040
:100550009DF809F10800BDE8F68B396990688A4278
:1005600028BF8842F3D3C6609660B060F260002076
:10057000B061EEE72DE9FE4F04468B46A5692E4695
:10058000904699463146FFF711FE0268416802EB3A
:10059000010AAAF1270111F007000EBF0021C1F1E5
:1005A000080101F007010AEB0100A0F12F0706F195
:1005B00010018F4238BF374607F11802002101921F
:1005C0000091A8F1280259462046FFF715FE07F1D1
:1005D000080010F0070F18BF01F058F81B207860D2
:1005E00007F1080104F5E07090E80C5081E80C5028
:1005F000C0F800B0C0F80480C0F80C9081600722F9
:100600000198009900E0001D491C00F108035345C2
:100610004260F8D30129D8BF01F038F8B74200F0A2
:100620009580BF1B301D321DC15949084900D15169
:1006300047F0010070604FEAD70BF751BBF11F0F75
:1006400021D804EBCB0000F12805A846102F38BFB5
:1006500001F01CF8206820FA0BF1CA0705D401212B
:1006600001FA0BF10843206006E0A868216988427E
:100670002CBF804601F00AF8AE60C8F80C60C6F8DE
:100680000880F5606FE0380A08BF002123D0B0F57C
:10069000803F28BF1F211ED2A0F58072120C02F0ED
:1006A00008029040A0F58051090C01F00401884037
:1006B000A0F580431B0CC2F10E0203F00203521A94
:1006C000D21A984002EBD032D01D27FA00F101F087
:1006D000010101EB420104EB8102002302F5987055
:1006E000F16173613361626822FA01F3DB0707D4B9
:1006F000012303FA01F1114361600660B0611DE05E
:1007000002681F291DBF4908C1F1190107FA01F14B
:10071000394600E002465068C008C000B84216D012
:1007200002F11003C80F03EB80034900186800288A
:10073000F0D12069834204D31E60B261F660B560D7
:1007400011E003B0BDE8F04F00F0A0BF0BE021695D
:1007500090688A4228BF8842F3D3C6609560B06033
:10076000F2600020B06103B0BDE8F08F2DE9F041E8
:10077000704F05463868884608B9FFF724FDB96808
:1007800001EB08002F30491E20EA010188457DD287
:1007900005F5D876B06828B1326889188A4275D2D2
:1007A000884273D300F0B2FF01001CBF0C6811F146
:1007B000010F6BD03068201805F5D872306053688F
:1007C000984238BF18467060A86960BB286908B1B4
:1007D000814200D22961316174610020F0614FF0E3
:1007E000FF303A686A62286205F128020020D26070
:1007F000926002F1080757611761801C10322028AF
:10080000F5D34D48854208BFA4F1280228D055F8F9
:10081000040CC00805EBC002A2F108000A19121A64
:10082000283A01461CE005F5E070024600E09268B7
:100830007AB3136857681F44B942F8D1137B1F0776
:1008400027D4AB691768BB4223D3D2F804C06744EE
:10085000BB421ED2A444C2F804C0E868A9692218A9
:100860002846FFF7C9FC1FE08068C0B103689342C7
:10087000FAD1027B130712D4026801604368E418BE
:10088000446043462846BDE8F041D0E40020BDE87E
:10089000F0812A69914238BF29610A19E5E70023EE
:1008A00022462846FFF766FEE8688045EED2A0EBB8
:1008B0000800A969E86001EB0802AA6140F00100A4
:1008C000506048F00300486001F10800BDE8F08185
:1008D00030B4184B1A6882B94FF480525A604FF402
:1008E00080344FF0FF32DA601A610422124D9C60AE
:1008F0005A61C5F8BC21114A1A6011F1400F17D294
:100900008269AAB1C368283199420BD200F5E0711F
:100910000C68A24203D34D682C44A24202D38968DA
:100920000029F5D1C16999423CBF4FF0FF32C26145
:1009300000F0A8BED47700200C7200206859883CD3
:100940002DE9F84F00258946090AC9F1000B08BFB7
:10095000002323D0B1F5803F28BF1F231ED2A1F56D
:100960008072120C02F008029140A1F580531B0C1A
:1009700003F004039940A1F58044240CC2F10E0257
:1009800004F00204D21A121BA14002EBD132D11D95
:1009900029FA01F303F0010303EB4203074607F5CD
:1009A000987858F8230030B31F2B0FBF4C465C08D3
:1009B000C4F1190409FA04F4AC46594600E0640095
:1009C0004268D208D200A2EB09028A4203D2110087
:1009D000054600F06981426910304FEAD47B50F837
:1009E0002B00002A1CBF824294460028E7D18B4688
:1009F0006046B0BBBDBB012202FA03F35B00584264
:100A0000796803430B4000F04E81584203405B1E5F
:100A1000180B00F01000C340590901F00801CB4049
:100A20009A0802F00402D3405C0804F0020408189B
:100A3000E3401018C3F3400620183044F3401B185D
:100A400058F823000DE008464168C908C900A1EB29
:100A5000090159453CBF8B46054601690029F2D181
:100A600040690028F0D1002D00F01D81B868A0EB8E
:100A70000900834580F0178139698D42C0F01181EA
:100A80006868C008C00009EB0B01884218BF00F07D
:100A9000FDFD05EB0906B54280F00381EC68D5F851
:100AA00018A0AC420CD0A8683969884223D3C26828
:100AB000AA4204BFA168A9421DD1C460A0601CE085
:100AC00005F114010C6834B905F110010C68A4B1EA
:100AD00001E011460C6804F114021068002802BFFE
:100AE00004F1100210680028F3D13869814202D362
:100AF00000220A6001E000F0C9FDBAF1000F36D013
:100B0000E86908EB800001688D4209D1046020008B
:100B100014D1E8697968012282409143796026E026
:100B20003869824508D3DAF81010A94214BFCAF810
:100B30001440CAF8104001E000F0A8FDBCB13869CB
:100B4000844212D3C4F818A0286930B139698842A8
:100B500026BF2061846100F099FD686938B1396968
:100B6000884202D36061846101E000F08FFDBBF137
:100B7000100F0CD2D94449F00300291D6860281DCC
:100B800051F8092042F0010240F8092088E049F0BC
:100B9000030068604BF0010070604FEADB0046F82C
:100BA0000BB01F281DD807EBC00101F128043968DC
:100BB00021FA00F2D307A34605D4012202FA00F07D
:100BC0000843386006E0A068396988422CBF834634
:100BD00000F05CFDA660CBF80C60C6F808B0F460CD
:100BE0005EE05FEA1B2008BF002123D0B0F5803F04
:100BF00028BF1F211ED2A0F58072120C02F008023D
:100C00009040A0F58051090C01F004018840A0F546
:100C100080431B0CC2F10E0203F00203521AD21AD7
:100C2000984002EBD032D01D2BFA00F101F0010107
:100C300001EB4201F16100227261326108EB810037
:100C40007A6822FA01F4E30707D4012404FA01F1D7
:100C5000114379600660B0611DE002681F291DBF65
:100C60004908C1F119010BFA01F1594600E00246A9
:100C70005068C008C000584518D002F11003C80FD2
:100C800003EB8003490018680028F0D138698342DB
:100C900004D31E60B261F660B66001E000F0F6FCBD
:100CA00014E100F0F3FC0EE18B46A2E6396990688E
:100CB0008A4228BF8842F1D3C6609660B060F26075
:100CC0000020B061ECE72DE9F84F064688467168D0
:100CD00048420140491E080B00F01000C1404A097B
:100CE00002F00802D1408B0803F00403D9404D08FC
:100CF00005F002051018E9401818C1F3400428183F
:100D000006F5987A2044E14009185AF821104868FD
:100D1000C008C0000D46A0EB080909E0014648687C
:100D2000C008C000A0EB080048453CBF81460D4606
:100D300008690028F2D149690029F0D1306985425B
:100D4000C0F0BF806968C90808EB090BC9005945A4
:100D500018BF00F09BFC05EB08008542009080F076
:100D6000B080EF68AC69AF420CD0A86831698842A6
:100D700023D3C268AA4204BFB968A9421DD1C76083
:100D8000B8601CE005F114010F6837B905F11001D6
:100D90000F68A7B101E011460F6807F1140210684F
:100DA000002802BF07F1100210680028F3D1306953
:100DB000814202D300220A6001E000F067FC002CAF
:100DC00031D0E8690AEB800001688D4208D10760E4
:100DD0008FB9E8697168012282409143716022E015
:100DE0003069844205D32169A94214BF6761276134
:100DF00001E000F04BFCB7B13069874211D3BC6110
:100E0000286930B13169884226BF3861876100F0B6
:100E10003DFC686938B13169884202D378618761E5
:100E200001E000F033FCB9F1100F0BD24BF00300DE
:100E3000291D6860281D51F80B2042F0010240F87E
:100E40000B203DE048F003012A1D696049F00100D4
:100E500042F80800009941F80990D6F808804FEA56
:100E6000D80BBBF1200F28BF00F010FCB8F1000F29
:100E700022D006EBCB00776900F12804A246B8F136
:100E8000100F38BF00F002FC306820FA0BF1CA07DF
:100E900005D4012101FA0BF10843306006E0A06897
:100EA000316988422CBF824600F0F0FBA760CAF887
:100EB0000C70C7F808A0FC60C6F808900098706134
:100EC00004E000F0E3FB0020BDE8F28F05F108002C
:100ED000BDE8F28F2DE9FE4F0546AFF30080F52DFA
:100EE000DFF89C6780F004810B2D31BF10250B3596
:100EF000ED08ED003068EC08E04010F0030F46D03C
:100F0000C04300F00100041906F1280000EBC408FA
:100F1000E700D8F808506868C008C000B84218BF99
:100F200000F0B4FBD5F80890454508BF00F0AEFBD3
:100F30004D4508BF00F0AAFB6868C008C000B84271
:100F400018BF00F0A3FBC84507D13068012101FAA2
:100F500004F420EA040434600DE03069814508D3CC
:100F6000D9F80C10A94204D1C8F80890C9F80C802F
:100F700001E000F08BFB47F00300291D6860281D8D
:100F8000CA5942F00102C25105F10804F8E0B16803
:100F9000A94280F0BE80002800F0A1804FF0010837
:100FA00008FA04F1490000FA04F4484201430C40F5
:100FB00060420440641E200B00F01000C440610930
:100FC00001F00801CC40A20802F00402D4406308FA
:100FD00003F002030818DC401018C4F34007181887
:100FE0003818FC40241806F1280000EBC40AE7007A
:100FF000DAF80890D9F80400C008C000B84218BF59
:1010000000F044FBD9F808B0D14508BF00F03EFB22
:10101000D94508BF00F03AFBD9F80400C008C00069
:10102000B84218BF00F032FBDA4506D1306808FA42
:1010300004F420EA040434600DE031698B4508D3E0
:10104000DBF80C00484504D1CAF808B0CBF80CA076
:1010500001E000F01BFB7F1B45F0030009F10402D7
:10106000C9F8040047F00101515109EB0502019252
:10107000D751B4684FEAD40ABAF1200F28BF00F064
:1010800005FB34B3CDF800A006F12800756900EB2C
:10109000CA0AD346102C38BF00F0F8FA316800981D
:1010A00021FA00F2D30704D408FA00F008433060B4
:1010B00007E0DAF80800316988422CBF834600F067
:1010C000E5FACAF80850CBF80C50C5F808B0C5F8D6
:1010D0000CA0B76009F108040198706150E07068D5
:1010E000C0B329463046FFF7EEFD040011D047E0BB
:1010F00015F1400F28BF4FF0FF350AD20B35ED0830
:101100007068ED0028B129463046FFF719FC04004D
:1011100036D1B068A8421DD3411B726910290AD389
:1011200050197061B16041F001034360415045F0D6
:10113000030555600BE00021B1607161131D40F0A3
:1011400003015160111D1C5844F001040C5002F1C0
:10115000080415E0F06885420DD2401BB169F060CB
:101160004A19B26140F00100506045F003054D603E
:1011700001F1080404E029463046FFF7F7FA044677
:10118000AFF300802046FFF7EEBA002800D1704789
:101190002DE9F047A0F10805AFF30080DFF8E06427
:1011A00031698D42C0F05982686800F00302012A5B
:1011B00000F05382C2084FEAC209C20705EB0908D2
:1011C00039D42C6810F0030F00F0498260420544C6
:1011D0008D42A144C0F041827069854200F0C68012
:1011E000E408202C5ED2D5F80CA0AF68554508BFA6
:1011F00000F04CFABD4208BF00F048FA6868C00829
:10120000C000B0EBC40F18BF00F040FA06F1280090
:1012100000EBC400874205D031698F423FD3FA68A2
:10122000AA423CD1BA452CD13068012101FA04F41C
:1012300020EA04043460454580F00F82D8F8044069
:10124000E00740F10A82A10700F16881B06980459A
:1012500040F09F80F168B5618944C6F80C9049F070
:101260000100686071698D4202D100207061B06038
:10127000F069484580F0F38100213046FFF728FBF4
:10128000EDE1824506D03069824508D3DAF80810CE
:10129000A94204D1C7F80CA0CAF80870CBE700F047
:1012A000F5F9C8E7EC68AF69AC420BD0A868884292
:1012B00022D3C168A94204BFA268AA421CD1C4605B
:1012C000A0601BE005F11402146834B905F11002A6
:1012D00014689CB101E01A46146804F114031868FC
:1012E000002802BF04F1100318680028F3D18A42D5
:1012F00002D30021116001E000F0C8F9002F9AD05C
:10130000E96906F5987000EB81000268954209D101
:101310000460200011D1E869716801228240914384
:10132000716088E73069874205D33969A94214BFE3
:101330007C613C6101E000F0A9F9002C3FF47BAF37
:1013400031698C42ABD3A761286928B1884226BF96
:101350002061846100F09AF9686900283FF46BAF5E
:10136000316988429BD36061846164E798F8040026
:1013700000F0030003287FF45EAFC6F8089049F040
:101380000101D8F8040040084000C8F80400696072
:101390000AE0706980450AD1B16875618944C6F870
:1013A000089049F00100686045F8099057E1E408A9
:1013B000E400A144E408202C3AD2D8F80CA0D8F8D4
:1013C0000870D04508BF00F061F9B84508BF00F0CB
:1013D0005DF9D8F80400C008C000B0EBC40F18BF16
:1013E00000F054F906F1280000EBC400874207D052
:1013F00031698F42C0F08580FA68424540F08180B3
:10140000BA4507D13068012101FA04F420EA040446
:10141000346078E0824506D03069824571D3DAF8CD
:10142000081041456DD1C7F80CA0CAF808706AE0F1
:10143000D8F80C40D8F8187044450DD0D8F80800FA
:101440003169884223D3C268424504BFA16841453F
:101450001DD1C460A0601CE008F114010C6834B90F
:1014600008F110010C68A4B101E011460C6804F108
:1014700014021068002802BF04F11002106800284E
:10148000F3D13069814202D300220A6001E000F00A
:10149000FDF8002F37D0D8F81C1006F5987000EB37
:1014A0008100026890450AD10460200012D1D8F86A
:1014B0001C007168012282409143716023E0306911
:1014C000874205D33969414514BF7C613C6101E025
:1014D00000F0DCF8BCB131698C4212D3A761D8F8B6
:1014E000100028B1884226BF2061846100F0CEF848
:1014F000D8F8140038B13169884202D36061846140
:1015000001E000F0C3F849F00100686045F8099077
:1015100071698D420BD1C6F80890A0E064086400A0
:10152000C8F8044049F00100686045F809904FEAA6
:10153000D907202F22D206F1280000EBC704A046CD
:10154000B9F1100F38BF00F0A1F8306820FA07F1A8
:10155000CA0705D4012101FA07F70743376006E0FF
:10156000A068316988422CBF804600F08FF8A560E2
:10157000C8F80C50C5F80880EC6070E05FEA1920EC
:1015800008BF002123D0B0F5803F28BF1F211ED205
:10159000A0F58072120C02F008029040A0F5805174
:1015A000090C01F004018840A0F580431B0CC2F136
:1015B0000E0203F00203521AD21A984002EBD03204
:1015C000D01D29FA00F101F0010101EB420106F5FD
:1015D0009872002302EB8100E9616B612B617268F4
:1015E00022FA01F3DC0707D4012303FA01F11143C6
:1015F00071600560A8611DE002681F291DBF4908D0
:10160000C1F1190109FA01F1494600E002465068AA
:10161000C008C000484526D002F11003C80F03EBF4
:101620008003490018680028F0D13069834204D350
:101630001D60AA61ED60AD6001E000F027F8306A3E
:10164000401E30620BD1D6F8C80100E08068002847
:10165000FCD14FF0FF30306201E000F017F8AFF33B
:101660000080BDE8F087316990688A4228BF8842CF
:10167000E3D3C5609560A860EA600020A861DEE75A
:101680000C72002030BC002070470000012000F0E8
:1016900053B8F0B40246106895681318506803EB0D
:1016A0005004C0071DD54D441BE013F8017B05F81D
:1016B000017B491EF9D1A0B1B60813F8011B06F051
:1016C0000306032E08BF13F8016B01EB0621494204
:1016D000801C294405D011F8016B05F8016B401EF0
:1016E000F9D1A3420ED013F8016B16F0030104BF29
:1016F00013F8011BC91C30090F28DAD113F8010BAC
:101700000F30D6E7F0BC02F10C00704707490868BB
:1017100008B1002070470648C008C00008600549AD
:10172000C908C900091A0160704700BF107900207C
:10173000277D0020207F002080B5AFF30080024A83
:1017400011001820ABBEFBE7260002002DE9F04F88
:101750000FF2A41CA1B0DCE90089CDE900892A9D23
:10176000DFF8DC9B049100248DF843500D944FF07A
:10177000FF38824616461F460FE0B3462C461BF83C
:10178000011B0498D0470028049000F0A2800D9817
:10179000401C641E0D90F2D176193078252808D1AE
:1017A000002100220791089209910A920B910C9254
:1017B0000DE06A464146304600F0D0FF050001D1F9
:1017C0000D98A1E0D9D50125E6E741F0010116F811
:1017D000010F2028F9D023280CD02B2804D02D2845
:1017E00005D0302809D076E041F00201EFE741F062
:1017F0000401ECE741F00801E9E741F01001E6E7F8
:101800000F9209E00F98484505DA00EB800402EBDF
:101810004402303A0F92761C3278A2F130000A2846
:10182000F0D330782E2818BFCDF8388022D116F8A2
:10183000010F2A2807D138683860761C50F8042B2D
:1018400038600E9216E02D280CBF761C0020002276
:101850000E920AE040B90E9A4A4505DA02EB82047C
:1018600003EB4403303B0E93761C3378A3F1300234
:101870000A2AEFD3ADF8401021A0317800F078FFAC
:1018800008B116F8010B8DF842009DF84200682857
:1018900004D1307868280AD1622105E06C2804BFA1
:1018A00030786C2803D171218DF84210761C12A873
:1018B00006903A4616F8013B02A9504600F064F83B
:1018C00038B912AA02A9504600F0C8F900287FF5DD
:1018D00064AF404618E02A2892D13A683A6052F83C
:1018E000040B3A6000280F9003D540420F9041F05E
:1018F0000401761C95E700000000000000000000D5
:10190000686A6C747A4C000021B0BDE8F08F6228E0
:1019100020D0682811D06A2803D06C2827D07128DD
:1019200025D10868C01D20F007000860D0E9002319
:1019300008300860194610467047002A0A680A6095
:10194000106803D0121D0A6000B217E0121D0A6071
:1019500080B217E0002A0A680A60106803D0121DDE
:101960000A6040B20AE0121D0A60C0B20AE0002A12
:101970000A680A60106803D0121D0A60C117704718
:10198000121D0A60002170477CB50D4611461C46A9
:101990002E69B4F1250200F04F811C3A00F08480DA
:1019A000121F022A40F280800E3A00F00981521F75
:1019B00059D0093A78D0921E16D0521E35D0521EF8
:1019C000022A71D9121F30D0521F00F09880521E87
:1019D00049D0521E00F0E280D21E00F0FF80921E1D
:1019E00041D0D21E3FD02DE195F83A406C2C09D061
:1019F0006869421C6A610A680A6052F8043B0A601E
:101A0000335429E10A680A6052F8043B0A600093E3
:101A1000002201924FF0FF332B636A46294600F003
:101A200098F9002840F1188103E195F83A00012265
:101A3000FFF76DFFC5E90001002904D56869411C65
:101A400069612D220DE0288F810704D56869411C4A
:101A500069612B2205E0C00721D56869411C6961D5
:101A6000202232541BE095F83A000022FFF74FFF86
:101A7000C5E9000195F83800010710D5D5E9002324
:101A8000002B08BF002A0AD044F02000782806D195
:101A9000686930213154401C421C6A61345421462B
:101AA00068693044E86087E00868C01D20F00700DE
:101AB0000860D0E9002308300860C5E90023D5E9B3
:101AC0000001C80F04D06869411C69612D220DE036
:101AD000288F810704D56869411C69612B2205E0C4
:101AE000C00704D56869411C6961202232546869C5
:101AF0003044E8602146284600F036FAACE005F1B3
:101B00003A02507820B14FF0FF340FF6043074E001
:101B10001078622808D0682824D06A2812D06C284F
:101B20002ED071280ED02BE00A680A6052F8040B00
:101B30000A6020B94FF0FF340FF6EC205DE0E96A4F
:101B4000017089E00A680A6052F8040B0A6020B943
:101B50004FF0FF340FF6D0204FE0EA6AD317C0E908
:101B6000002379E00A680A6052F8040B0A6020B981
:101B70004FF0FF340FF6B0203FE0E96A01806BE0E0
:101B80000A680A6052F8040B0A6020B94FF0FF346B
:101B90000FF6942031E0E96A01605DE00A680A60AE
:101BA00052F8040B0A60002120F0000221F0FF33FC
:101BB000C5E90023EE607821284600F02DF94BE0BE
:101BC0006C2285F83A200B680B6053F8042B0B60ED
:101BD00052BB4FF0FF340FF684200EE095F83A2008
:101BE0006C2AF0D00868086050F8044B0860EC607C
:101BF0003CB94FF0FF340FF6482000F0D3FD201A17
:101C000076BD2E6B002E04D5204600F0EBFD044679
:101C100008E032460021204600F004FE002814BFF0
:101C2000041B3446AC6117E0294600F092F8002806
:101C300012D54FF0FF3076BD6869411C69612522DD
:101C4000325409E06969481C6861252272542100F8
:101C500002D0431C6B613454002076BD2DE9F04165
:101C60000E4605469046726B7069316AB46A121A64
:101C7000B069521A716A121AF069521A121A96F859
:101C80003800141B41070DD4002C0BDD2746B0682B
:101C90002021A8470028B06057D0F06A401C7F1E62
:101CA000F062F4D1736942463146284600F098FC50
:101CB00000284AD1376A002F0ADDB0683021A847D2
:101CC0000028B06041D0F06A401C7F1EF062F4D161
:101CD000B369F2683146284600F082FCA8BB776AF7
:101CE000002F09DDB0683021A847B06068B3F06A02
:101CF000401C7F1EF062F5D1F068B169F3694218AB
:101D00003146284600F06CFCF8B9B76A002F09DDAF
:101D1000B0683021A847B060B8B1F06A401C7F1E9F
:101D2000F062F5D196F8380041070BD5002C09DD9B
:101D3000B0682021A847B06038B1F06A401C641E2A
:101D4000F062F5D10020BDE8F0814FF0FF30BDE832
:101D5000F0812DE9F8470D46A3B02F6B002F064602
:101D6000904648BF6FF000470FF60C1400F086FD58
:101D7000D4E90023696B4018CDE90123812828BFED
:101D80004FF0FF3042D20024002F33DDD8F800108E
:101D900001AA684600F0E4FC8146B9F1000F38D48E
:101DA000D8F8000010B9B9F1010932D44F4521DB50
:101DB0006869484481280AD30021696303AA294637
:101DC0003046FFF74BFF040014D40020686103ABDA
:101DD000D5F814A04A46694603EB0A0000F054FD0A
:101DE000CA44C5F814A058F8040B002818BFA7EB84
:101DF0000907C9D14CB903AA29463046FFF72EFF7F
:101E0000044614B9002068616863204624B0BDE828
:101E1000F0874FF0FF34F8E72DE9FC4307466F29C0
:101E20003E6908BF082405D041F02000782814BF7F
:101E30000A2410243C25D7E90023642918BF692906
:101E40009046994605D1002B03D5D8F1000869EBDF
:101E50004909B9F1000F08BFB8F1000F1FD1386B65
:101E6000E8B9082C4CD197F83800010748D5302044
:101E70003B2586F83B0043E000280ED597F8380054
:101E800000F01400102808D17B6B7969386A5B1A5E
:101E90001B1A9A1A002AC8BF3A62BDE8F3838DF86C
:101EA0000010404649462246E31700F041FD30321B
:101EB000D0B26D1E3A28019504DB9DF80000A0F118
:101EC00051018A187255404649462246E31700F0F0
:101ED0002FFD80465FEA010908BFB8F1000F03D06B
:101EE000F86871198842DCD3082C09D197F83800BA
:101EF000010705D5705D302802D06D1E3020705569
:101F0000C5F13C02BA617119F960386B8242B3DAEB
:101F1000821A3A624FF6EF70398F01403987BDE877
:101F2000F3832DE9D04306460F4614464FF00008D0
:101F3000DFF8109412E0E00707D542464B463046E2
:101F4000394600F00DFE06460F46404649464246D9
:101F50004B4600F005FE641080468946002CEAD10D
:101F600030463946BDE8D0832DE9F84F05468A460C
:101F70004AF020048EB0D5E90089612C02AE09D068
:101F8000286B002848BF062003D408BF672C01D166
:101F900001202863D5E900014A005215521C0DD1D9
:101FA0000B030BD0AAF1610103201A29A86102D208
:101FB0000FF2CC6110E00FF2CC610DE04A00521537
:101FC000521C0ED10B030CD1AAF1610103201A2976
:101FD000A86116D30FF2B461E868032200F054FC44
:101FE000C0E1CDE90C01DDE90C2323F00043B3F59A
:101FF000801F0DD20027002B08BF002A019703D1B4
:1020000011E00FF28461E7E701AA00F07BFE0AE02D
:10201000CD48CE4900EB1350DDE90C2301900B4075
:10202000CB4910461943C5E90001612C0DD1E86880
:1020300030210170821CBAF1610FEA600CBF782177
:10204000582141706869801C6861D5E90001CDE9BB
:102050000C01DDE90C2333F0004104BF002800230C
:1020600000F04881612C40F0A080286B4946002890
:102070004CBF4FF0210B00F1010B40460022002322
:10208000DDE90C8900F076FE01990BF1010738BFFC
:1020900089F00049091F002F01918DF808200DF1EA
:1020A000090040F33581A94900910646404649465A
:1020B0000022002300F076FE80F029814800400DC8
:1020C00000F11C0211D0002A0FDD40F2FF739A428A
:1020D00005DBA04909F000400143002011E0009B0E
:1020E000194041EA025140460BE028F0000039F067
:1020F000004108BF00280FBF49461C22494600F096
:1021000069FE8046894600F003FFFF1F002F04464A
:1021100009DD00F01BFF02460B464046494600F031
:1021200027FF80468946F01D072104E004F00F02D6
:1021300000F8012D2411002C01DD491EF6D5491EA1
:102140005CBF002200F8012DF9D5DCE00020194623
:1021500002AA0A4400E05B1E12F80149491E8442AB
:10216000F9D00F2804D10DF10900425C521C4254F1
:10217000002904D50198001D02AE5B1C0190581E79
:102180000CD43118AAF13A040A783032D7B23A2F77
:10219000A8BFA218401E01F80129F5D5286B002818
:1021A00040F1A780591E2963A3E001996A4A47F2CA
:1021B0009750414391FBF2F2019229F00046D2F18F
:1021C000070204DD40463146FFF7ABFE0AE052420B
:1021D00000206249FFF7A5FE02460B464046314605
:1021E00000F038FF8046662C286B06BF019F0A3737
:1021F00006273F18142FC8BF142730208DF8080079
:1022000089460DF1090000E03046002F34DD064616
:102210004046494601F042F801460A4606F10803E5
:1022200004200A26B2FBF6F606EB860EA2EB4E025F
:10223000303203F8012C0A22B6FBF2F202EB820ED6
:10224000A6EB4E063036401E03F8026DE9D1083F7A
:10225000002F03F10806D7DD084601F033F80246E7
:102260000B464046494600F083FE00223C4B00F0FE
:1022700077FC80468946CBE70DF10901401A0DF144
:10228000090604E00199491E401E0191761C31782F
:102290003029F7D0662C02D10199491C03E0652C46
:1022A0000CBF012100212B6BCB189842B8BF431EF5
:1022B000002B1ED4834204DAF05C3528A8BF3920F5
:1022C00000DA30201946721E02EB010800E05B1EA6
:1022D00018F80199491E8145F9D0392802D1705C5E
:1022E000401C7054002904D50198401C16465B1C04
:1022F0000190019800B200901BB232465146284628
:1023000000F034F82EE0C61D002F3FF7CFAE304668
:102310000DF10901401A03465845C8BF5B46002B22
:102320000DF109063FF53AAF8342BFF60FAF0DF14D
:102330000900C15C07297FF709AF0F2007E70000FC
:10234000CBCCCC0C0000244002FCFFFFFFFF0F8031
:102350000000E03F0000F07FA08601000000F03F99
:1023600084D797410FB0BDE8F08F00002DE9F84702
:1023700083B006468A461746984600F0F3F9B8F14E
:10238000000F406A356B90F8009002DC4FF00108B6
:10239000BFA74AF02000BDF93040662808BF641C82
:1023A00015D0672840F0848014F1040FC0F28680B5
:1023B000AC4280F2838096F83800641C010702D496
:1023C000A845B8BF454620B22D1A48BF00250FFAD0
:1023D00084FAF068B169BAF1000F25DC4A1C302399
:1023E0004354002D03DC96F83800010703D5F0684C
:1023F00000F80290521C15EB0A0FB8BF6C4220B2D5
:10240000441941424445B8BFA046B26171620FFA17
:1024100088F5F561F068B3692A463946184400F03A
:1024200033FA641BB462C4E022B29045084417DA60
:102430004246394600F028FAB0694044B061AAEB40
:102440000801002D716203DC96F838100A0705D5E3
:10245000F16801F80090F069401CF061B562A8E0F5
:10246000394600F011FAB069002D5044A8EB040879
:1024700003DC96F838100A0703D5F16801F80090DC
:10248000401CB0610FFA88F08542F368B069B8BFAC
:10249000A8460FFA88F207EB0A01184400F0F4F995
:1024A000B1690FFA88F00144B161281A706280E0C6
:1024B000BAF1610F14D14FF0700A16E0A84504DAA2
:1024C00096F838100A0758BF45466D1E48BF0025CC
:1024D000BAF1670F14BF4FF0450A4FF0650A04E0E8
:1024E000BAF1410F08BF4FF0500AB169F368481CB8
:1024F000B061002D17F8012B5A5403DC96F8381000
:102500000A071BD5F168431CB36101F80090002D48
:1025100014DDA8F101080FFA88F039468542F76802
:10252000B8BFA8460FFA88F2F81800F0ADF9B06904
:102530000FFA88F108446D1AB0617562F068B169EC
:102540000844002C80F800A003D42B224270811C88
:1025500003E02D2141706442811C00206A460AE09C
:1025600023460A2493FBF4F404EB8405A3EB450310
:1025700002F8013B401C24B2002CF1DC012806DCEF
:102580004AF02002652A04BF302201F8012B48B925
:10259000302001F8010B07E0401E1DF800303033F9
:1025A00001F8013B0028F7DCF268B0691044091A11
:1025B000F16196F8380000F0140010280DD172690E
:1025C000B169706A8A18F1698218B06A8A1882182B
:1025D000706B8242BCBF821A326204B0BDE8F087E1
:1025E000F8B505460E4617461C46002074B117F88C
:1025F000011BB068A847B06030B1F06A401CF062BF
:102600000020641EF3D1F2BD4FF0FF30F2BD000098
:102610007072696E74665F733A20256E2064697308
:10262000616C6C6F776564007072696E74663A20D5
:1026300062616420256E20617267756D656E74003D
:102640007072696E74665F733A20626164202573EC
:1026500020617267756D656E740000007072696E3E
:1026600074665F733A2062616420256C7320617226
:1026700067756D656E7400000000000000000000CA
:102680006E616E004E414E00696E6600494E460016
:10269000300030B4002513E050F8042BD30744BFBA
:1026A000A9F101039A18091F042942F8045BFAD220
:1026B00013468C0744BF15809B1CC90748BF1D707B
:1026C00050F8041B0029E7D130BC7047FFE74138C0
:1026D0001A288041C00F7047A0F10901052901D3D4
:1026E000202801D10120704700207047A0F141014E
:1026F0001A2938BF203070471B48704770B45368A0
:10270000D418042B09DA41B1057804F8015B10F8FC
:10271000016B16B15B1C491EF3E7536070BC704738
:1027200038B514461D4661B1FFF7E8FF61686A6B72
:10273000204690476FF00102811A02D0491E01D055
:1027400001E003E005E00021616032BD6FF00100AF
:1027500032BD4FF0FF3032BDDA6B1047024BDFE77E
:10276000014BF9E70148704708040020D00300201E
:10277000C9B202788A421AB11CBF10F8012FF9E7DA
:1027800018BF00207047B1F5807F02D34FF0FF30B3
:1027900070470170012070470078401E8041C0439F
:1027A000C00F704780B500B906A005490B681BB182
:1027B00022220021984701E0FEF768FF222002BD97
:1027C0000C790020636F6E73747261696E74206897
:1027D000616E646C65723A20626164206D6573732A
:1027E0006167650000F10103810704D010F8011B47
:1027F000820781B1FAD10268A2F10131914311F04F
:10280000803104BF50F8042FF6E709BAB1FA81F11C
:1028100000EBD100401CC01A70470268531C0360D3
:1028200011707047C9B2830706D0521E22D310F828
:10283000013B9942F7D11FE0083A13D302F1040299
:1028400041EA012141EA014150F8043B121F21BF36
:102850004B40A3F1013C2CEA030C1CF0803FF3D069
:10286000C9B2001F083210F8013B521E28BF91EA7E
:10287000030FF8D818BF0120401E704780B5FFF73E
:102880003BFF006C02BD000062B38B0708D0521EF4
:1028900011F8013B00F8013B00F024808B07F6D1D2
:1028A000830740F0208000BF103A07D330B4B1E86E
:1028B0003810103AA0E83810F9D230BC530724BFC2
:1028C000B1E80810A0E8081044BF51F8043B40F8F4
:1028D000043BD20724BF31F8022B20F8022B44BF5F
:1028E0000B7803707047121F17D35B0009D151F8A2
:1028F000043B20F8023B1B0C121F20F8023BF6D2CF
:102900000BE051F8043B00F8013B1B0A20F8023BA6
:102910001B0C121F00F8013BF3D238BF121D521ED0
:1029200024BF11F8013B00F8013BF8D870470000C4
:10293000BBBBE1B1B2F5803F80F07E80022A1ED998
:102940008C46B1FBF2F102FB11C31B0443EA1043B6
:10295000B3FBF2FC02FB1C3380B240EA0343B3FB3F
:10296000F2F002FB103240EA0C4000237047022ACA
:1029700005D98446B0FBF2F002FB10C270474AB1A1
:1029800005D100F0010249085FEA300070470022DB
:102990000023704700F0A4BC0B00020000210020BF
:1029A0007047904271EB030CF6D3B3F5803F2FD202
:1029B000F0B5B3FA83F7B1FA81F4A7F10F0E3D1B1E
:1029C0005340CEF1200602FA0EF2F3415340B5F126
:1029D0000F0746D80F3C2C444140C4F12006A040CC
:1029E000F1414140B1FBF3F603FB1611A2FB064592
:1029F000001BA94102D2761E8018594180EA0102CB
:102A000021FA0EF362FA0EF200215A403046F0BD70
:102A100030B4B1FBF3FC03FB1C11A2FB0C45001B03
:102A2000A94103D2ACF1010C8018594130BC0246D7
:102A30000B46604600217047B2F1807F65D3F0B548
:102A4000B2FA82F7B1FA81F4C7F10F063D1B22FA00
:102A500006F307F1110EF24120355A40B5F10F0788
:102A6000B8D94140C4F12006A040F1414140B1FB3A
:102A7000F3FC03FB1C11A2FB0C45001BA94103D274
:102A8000BCF1010C801859410F2F12D30F3FC9031D
:102A900041EA5041B1FBF3F603FB1611A2FB0645D8
:102AA000D4EBC030A94102D2761E8018594146EAC3
:102AB000CC3C07B34140C7F12006B840F14141404A
:102AC000B1FBF3F603FB1611A2FB0645001BA9415F
:102AD00002D2761E8018594180EA010221FA0EF3D3
:102AE000C7F1200462FA0EF20CFA07F05A402CFAF1
:102AF00004F13043F0BD80EA010221FA0EF3002117
:102B000062FA0EF260465A40F0BD8C46B1FBF2F11B
:102B100002FB11C31B0243EA1063B3FBF2FC02FB8E
:102B20001C331B024CEA002043EA1063B3FBF2FCA7
:102B300002FB1C331B024CEA002043EA1063B3FB88
:102B4000F2FC02FB1C331B024CEA002043EA106338
:102B5000B3FBF2FC02FB1C324CEA0020002370475E
:102B6000B0B581EA030C0CF0004C40F2FF7515EA99
:102B700011541DBF15EA1357AC42AF4239E0E419B6
:102B800023EA455343F48013C90241F0004141EA6E
:102B9000505EC7021100A7FB020200284FF00000A0
:102BA000EEFB01204FF00001E3FB072118BF42F0CC
:102BB0000102401800214941E3FB0E01A4F58064A5
:102BC0000F0302D252004041494154F101046CDD2F
:102BD000470872F1004250F1000051EB0451A1F599
:102BE00080115CBF41EA0C01B0BD4CEA05510020E8
:102BF000B0BD05EA1357AC4214BFAF4241E050EA02
:102C0000410E1CBF52EA430E02E061460020B0BDF7
:102C100024423C441BD15FEA070EF6D0090302BFF1
:102C200001460020AEF1140EB1FA81F7AEEB0704B5
:102C300001FA07FE0C37C7F1200100FA07F7C84078
:102C40004EEA000E23EA455343F48013A2E733F023
:102C50000043B3FA83F704BFB2FA82FE77440B3F16
:102C6000E41BB7F1200E2FBF02FA0EF3BB40C7F1F1
:102C7000200E22FA0EFE38BF43EA0E03BA40641C4F
:102C800082E750EA410E14BF52EA430E6FF0000192
:102C90004FF4001717EB430F8ABF194617EB410F8C
:102CA000B5E74CEA05510020B0BDD4F10104B4F100
:102CB00020070FDAC4F12007520828BF42F00102B2
:102CC00010FA07F501FA07F7E1BF2A43E04038435D
:102CD000E1400FE0352C98DCC7F1200452EA4002B5
:102CE00020FA07F218BF42F0010231FA07F0A140C2
:102CF0000A43002172F1004250F1000051EB0C0137
:102D0000B0BD000010B5144600F002F8226010BDFE
:102D1000C1F30A5343B14A0012F5001F28D2A3F2AF
:102D2000FE32A1EB0251704750EA410C20D001F075
:102D3000004C31EA0C01B1FA81F204BFB0FA80F321
:102D4000D2180B3AB2F120032CBF00FA03F19140E4
:102D500041EA0C013EBFC2F1200C20FA0CF31943EA
:102D60009040524240F2FD33D21A01EB03517047BA
:102D7000002270474FF4001C1CEB410F94BF1CEB6A
:102D8000430F09E041EA030C50EA4C0C52EA0C0CE8
:102D900003D2994208BF9042704714BF8B428242CF
:102DA000704700004FF4001C1CEB410F94BF1CEB5C
:102DB000430F09E041EA030C50EA4C0C52EA0C0CB8
:102DC00003D28B4208BF8242704714BF994290429F
:102DD00070470000124254D440F2FF7C1CEA1153A9
:102DE0000FD0634531D09B1863453CBF01EB0251C6
:102DF000704701F0004141EA0C510020AFF3008020
:102E0000704750EA410320D001F0004C91EA0C01D8
:102E10001CD0B1FA81F30B3B9A420DD9D21A9940DA
:102E200051EA0C01C3F1200C20FA0CFC61449840DB
:102E3000531C40F2FF7CD7E7914041EA0C01C2F1FC
:102E4000200C20FA0CF3194390407047B0FA80F33D
:102E50001533202BE0D3202AEED3203A203B9A4290
:102E600009D9D21A00FA03F141EA0C010020531CDF
:102E700040F2FF7CB8E700FA02F141EA0C010020C1
:102E80007047524240F2FF7C1CEA11530DD063455B
:102E9000DBD0B2EB030C3CBFA1EB025170470CF14D
:102EA000010221EA035141F4801150EA410CCCD0D7
:102EB00001F0004C352A27DC30B481EA0C01B2F174
:102EC000200309DAC2F12003044601FA03F5D040D9
:102ED0002843D1409C400CE0C3F12002450020FA79
:102EE00003F418BF44F0010421FA03F091400C43AD
:102EF000002174F1004550F1000051EB0C01244217
:102F000030BC7FF47BAF70476146002076E700005D
:102F1000C1F30A5340F2FE329B1A14DDD3F12003B1
:102F20004FEAE17208DDC90241EA505141F0004028
:102F3000D84080185040704703F2E13010B1D243BE
:102F400082F000407047002070470000C11768B150
:102F50004840401AB0FA80F29040D21CC907C2F52E
:102F6000846241EA025202EBD02140057047000022
:102F700070B44FF0004591EA030F40F1B3816B400C
:102F8000841A71EB030603D2001BB141121973417D
:102F90004FF4001C1CEB410F34BF7CEB430442E0B8
:102FA0000C0DA4EB1356352E4FDC45EAC323DB0A88
:102FB00045EAC121C912B6F120050DDD63FA05F617
:102FC000EB4086EA0305124218BF45F00105C01820
:102FD00051F100010CD213E062FA06F5F2405540BF
:102FE000F3415A40B340F3405A408018594107D347
:102FF00049085FEA30005FEA350528BF45F0010562
:1030000001F58011420875F1004250F1000041EBDA
:1030100004514E0016F5001F70BC38BF70470020E9
:10302000090D090570471CEB410F10D252EA430607
:103030000BD0BCEB410F05D80C0DAB43661E342EF4
:10304000B6DD02E0AB438018594170BC704770BCDC
:1030500070470000F0B540F2FF7581EA030C0CF0F8
:10306000004C15EA11541DBF15EA1357AC42AF428C
:10307000E5E0BC41C1F31301C3F31303801A994186
:1030800043F4801304D2641E400049418018594122
:10309000C90241EA5051B1FBF3F603FB1611A2FB42
:1030A0000675D7EBC020A94102D2761E801859417F
:1030B000C90241EA5051B1FBF3FE03FB1E11A2FB12
:1030C0000E75D7EBC020A94103D2AEF1010E8018D6
:1030D0005941890241EA9051760546EA8E2EB1FBAC
:1030E000F3F603FB1611A2FB0675D7EB8020A9416E
:1030F00002D2761E80185941C90241EA50514EEA67
:10310000060EB1FBF3F603FB1611A2FB0675D7EB17
:10311000C020A94102D2761E80185941C90241EA55
:103120005051B1FBF3F703FB1711A2FB0735D3EBAB
:10313000C020A94167F100070CBF004247F001071A
:1031400066F3D5274FEA1E31B80814F5806412DD06
:10315000BD0775F1004250EB0E5051EB045111F5D3
:10316000801F5CBF41EA0C01F0BD4CF07F6141F073
:10317000E0410020F0BDBD076D0840EA0E5041F46B
:103180008011D4F10104B4F120060ADAC4F120065A
:103190000200E04001FA06F3E1401843B240154353
:1031A0000EE0342C13DCC6F1200445EA40056D081E
:1031B00020FA06F2154321FA06F0A1400D43002142
:1031C00075F1004250F1000051EB0C01F0BD002000
:1031D0005FEA0C01F0BDCFB992185B41B3FA83F7F7
:1031E00004BFB2FA82F6BF190B3FB7F120062FBF1A
:1031F00002FA06F3BB40C7F1200622FA06F638BFF2
:103200003343BA401CB1E419641E33E77F4231F006
:103210000041B1FA81F404BFB0FA80F6A4190B3C66
:10322000B4F120062FBF00FA06F1A140C4F1200638
:1032300020FA06F638BF3143A0403C1B1AE7AC42E7
:103240001ABF05EA1357AF4212E050EA41061CBF0D
:1032500052EA4306BFE750EA4107304661461CBFC9
:1032600041EA0551F0BD52EA430C08BFC143F0BD2D
:1032700000204FF4001616EB410F98BF16EB430FDA
:1032800008BF16EB410F24BFC14305E016EB430F07
:103290000CBF61464CEA0551F0BD0000400D4918D5
:1032A00040EA81200CD2490DA1F58061491C40F013
:1032B000004005DBD1F11F0154BFC840C017704763
:1032C00000207047014648B1B0FA80F18840C91C1F
:1032D000C1F58461090501EBD0214005704700006C
:1032E00070470000841A71EB030604D26E40001B85
:1032F000B141121973414FF4001C1CEB410F34BF54
:103300007CEB430683E00C0DA4EB1356362E00F342
:103310007C80012E45EAC32341DC43EA525312BFAD
:10332000D20292025B08240545EAC12141EA5051CC
:10333000D2EBC020994125D407D1B0FA80F610FA1B
:1033400006F162D00020203608E0B1FA81F6B140E3
:10335000C6F1200220FA02F21143B0404FEAF474A1
:10336000B4EB465434F001064FEA74040AD8D6F59B
:103370000016760D04F00044F04061FA06F2504069
:10338000F1404840C00A40EA415021F0004128BFC6
:103390005FEA500550F1000044EBD12135E0DB0A33
:1033A00045EAC121C90AB6F120050EDD42EA024212
:1033B000120CC5F1200603FA06F6EB4042EA0605B8
:1033C0006D42984161F100010DE062FA06F5F240AC
:1033D000554063FA06FC82EA0C02F3405A406D4203
:1033E000904161EB030111F4801F05D1641E620559
:1033F00002D06D004041494121F48011430875F12C
:10340000004350F1000041EB045170BC70471CEBCD
:10341000410F15D223F0004352EA43060BD04FEA86
:103420004C0CBCEB410F04D80C0D661E342EB7DDDE
:10343000EBE7801A994150EA410608BF0021E4E712
:1034400008BF1CEB430F28BF6FF00001DDE7000051
:103450002DE9F04F85B006000F0090469946DDF843
:1034600038A00F9C109D002C07D1202080F31188DC
:10347000BFF34F8FBFF36F8FFEE7002D07D12020E2
:1034800080F31188BFF34F8FBFF36F8FFEE75C208F
:10349000009000985C2807D0202080F31188BFF3AB
:1034A0004F8FBFF36F8FFEE70098002D19D0002CCF
:1034B00017D0AB46CBF8304002208BF859000020E3
:1034C0000390CDF808B004A80190CDF800A04B46B9
:1034D00042463900300000F047F8584600F0B7F88F
:1034E00001E000200490049805B0BDE8F08F2DE9BC
:1034F000F84F84B006000F0090469946DDF838A0DA
:10350000DDF83CB0404680B2800000F091FD05003F
:10351000002D0BD05C2000F08BFD0400002C01D0AE
:10352000256304E0280000F013FE00E00024002CD6
:1035300015D0002084F85900002003900294CDF8A3
:1035400004B0CDF800A04B46424692B2390030009C
:1035500000F00AF8200000F07AF8012001E05FF0A6
:10356000FF3005B0BDE8F08F2DE9F94F81B00C00B8
:1035700016000C9F0D9DDDF83880B00000905FF0C4
:10358000A50BD8F830A05A460099504600F08AFEA4
:10359000D8F8300000EB8600B0F1040A5FEADA0ADE
:1035A0005FEACA0A1AF00700002807D0202080F33B
:1035B0001188BFF34F8FBFF36F8FFEE7002C15D03C
:1035C00000208146B9F1100F0CD214F8090008EB65
:1035D000090181F8340014F80900002802D019F11B
:1035E0000109EFE7002088F8430002E0002088F896
:1035F0003400382F01D337200700C8F82C70C8F8E2
:103600004C700020C8F8500018F1040000F08CFE47
:1036100018F1180000F088FEC8F81080D7F13800C3
:10362000C8F81800C8F824800020C8F8540000200A
:1036300088F85800029A0199504600F0B3FEC8F885
:103640000000002D01D0C5F80080BDE8F78F38B527
:10365000040000F037FFDFF828140868401C0860F9
:10366000DFF820542868002806D12C60086801285B
:103670000DD100F0E5FA0AE0DFF80C04006800283C
:1036800005D1E06A2968C96A884200D32C60DFF856
:10369000FC030168491C016000686064DFF83004C5
:1036A0000168E26A914201D2E16A0160211DDFF8FE
:1036B0002424E36A1420434302EB030000F037FEA6
:1036C00000F01AFFDFF8C003006800280DD028685A
:1036D000C06AE16A884208D25FF08050DFF898142F
:1036E0000860BFF34F8FBFF36F8F31BD38B5050052
:1036F0000024002D15D0DFF864040068002807D0EE
:10370000202080F31188BFF34F8FBFF36F8FFEE748
:1037100000F060F80021280000F03AFC00F060F8AA
:103720000400002C08D15FF08050DFF84C140860D2
:10373000BFF34F8FBFF36F8F31BD10B586B0002040
:1037400004900020039005AA03A904A801F040F802
:10375000DFF8304704980290039801900020009011
:103760000023059ADFF820170FF2B140FFF770FE33
:1037700020602068002801D0012400E00024012CF2
:1037800002D101F03DF80400012C16D1202080F375
:103790001188BFF34F8FBFF36F8F5FF0FF30DFF8FB
:1037A000EC1608600120DFF8E01208600020DFF866
:1037B000B013086000F01FFE0AE014F1010F07D1FA
:1037C000202080F31188BFF34F8FBFF36F8FFEE788
:1037D00006B010BDDFF884030168491C0160704722
:1037E000F8B500250026DFF874432068002807D1CB
:1037F000202080F31188BFF34F8FBFF36F8FFEE758
:1038000000F060FE2068401E20602068002856D12D
:10381000DFF86C020068002851D0DFF864160868F1
:10382000002826D0C868C068050015F1180000F00F
:10383000A5FD281D00F0A2FDDFF894020168EA6AE8
:10384000914201D2E96A0160291DDFF88822EB6A02
:103850001420434302EB030000F069FDE86A894944
:103860000968C96A8842D8D30120DFF80C170860BC
:10387000D3E7002D01D000F051FADFF8F8763C686C
:10388000002C0CD000F023F8002803D00120DFF832
:10389000E8160860641E002CF4D100203860DFF8C0
:1038A000D806006800280AD0012006005FF080508A
:1038B000DFF8C4120860BFF34F8FBFF36F8F00F0C3
:1038C0001BFE3000F2BDDFF89802006870472DE95A
:1038D000F0410027A148006800286ED1DFF880027F
:1038E0000468641C0460002C1CD1DFF828130868ED
:1038F0000068002807D0202080F31188BFF34F8F85
:10390000BFF36F8FFEE7D1F80080DFF80C03026889
:103910000A60C0F80080DFF864060168491C016095
:1039200000F0FCF9DFF86485D8F80000844238D351
:10393000DFF8E01208680068002804D15FF0FF306B
:10394000C8F800002DE00868C068C0680500686815
:103950000600B44202D2C8F8006022E0281D00F040
:103960000DFDA86A002803D015F1180000F006FD2F
:1039700057480168EA6A914201D2E96A0160291D4B
:10398000544AEB6A1420434302EB030000F0CFFCDF
:10399000E86A3C490968C96A8842C9D3012007001E
:1039A000C6E7384800684B49C26A14204243885829
:1039B000022807D30120070004E0DFF8B8050168FA
:1039C000491C0160DFF8B0050068002801D0012023
:1039D00007003800BDE8F08110B460480068002896
:1039E00004D00120DFF8901508602CE00020DFF8FB
:1039F00088150860364A10681423364C03FB00F122
:103A0000615800290BD1002807D1202181F31188AA
:103A1000BFF34F8FBFF36F8FFEE7401EECE703FB52
:103A200000F304EB03014B685B684B604B6811F1DA
:103A30000804A34202D14B685B684B604968C968BF
:103A4000104B1960106010BC704738B504000D00B1
:103A5000002C07D1202080F31188BFF34F8FBFF3D4
:103A60006F8FFEE7DFF81C05006810F118012000D9
:103A700000F069FC0121280000F08AFA31BD000045
:103A8000CC780020BC780020D8780020E87800208E
:103A900070B505000E001400002D07D1202080F322
:103AA0001188BFF34F8FBFF36F8FFEE7DFF84C0530
:103AB000006810F11801280000F039FC002C02D039
:103AC0005FF0FF3006002100300000F061FA70BDA9
:103AD000D4780020AC67002038B50500E868C468D9
:103AE000002C07D1202080F31188BFF34F8FBFF344
:103AF0006F8FFEE714F1180000F040FC17480068D3
:103B0000002815D1201D00F039FCDFF87C04016885
:103B1000E26A914201D2E16A0160211DDFF86C2462
:103B2000E36A1420434302EB030000F000FC05E0CD
:103B300014F11801DFF8480300F0F9FBDFF8440442
:103B40000068C06AE16A884205D201200121DFF8DD
:103B50003024116000E0002032BD0000F478002025
:103B6000D0780020DFF8141409680160DFF894149D
:103B7000096841607047000004ED00E02DE9F04164
:103B800004000D00002C07D1202080F31188BFF322
:103B90004F8FBFF36F8FFEE7002D07D1202080F3FA
:103BA0001188BFF34F8FBFF36F8FFEE700F08AFCE1
:103BB000DFF8500406686768F71B286810F1010FEA
:103BC00002D15FF000081BE0DFF8B0030068216855
:103BD000884205D06068864202D35FF001080FE09A
:103BE0002868874208D22868C01B28602000FFF799
:103BF000B9FF5FF0000803E0002028605FF00108D3
:103C000000F07AFC4046BDE8F0810120DFF8701337
:103C100008607047C0780020C478002010B5040008
:103C200000F039F8DFF8640300680228F8D35FF089
:103C3000805028490860BFF34F8FBFF36F8FEFE7C5
:103C400070B50024382C09D2DFF84003142101FBA1
:103C500004F1084400F059FB641CF3E7DFF8A853B3
:103C6000280000F052FBDFF8A463300000F04DFBA9
:103C7000DFF80C0200F049FBDFF8940300F045FB8D
:103C8000DFF8900300F041FBDFF88C030560DFF8FC
:103C90008C03066070BD38B5DFF8845328680028AF
:103CA00017D000F00FFCDFF86803C068C06804009C
:103CB000201D00F063FBDFF86C030168491E016002
:103CC0002868401E286000F017FC200000F004F86F
:103CD000E2E731BD04ED00E010B5040094F85900AE
:103CE000002806D1206B00F033FA200000F030FAF3
:103CF00013E094F85900012803D1200000F028FABD
:103D00000BE094F85900022807D0202080F3118896
:103D1000BFF34F8FBFF36F8FFEE710BDDFF8F822C0
:103D200010680068002804D15FF0FF30574A106027
:103D300006E01068C068C06801004868534A106017
:103D40007047DFF8E4020068002801D1012007E095
:103D5000DFF8AC020068002801D1022000E000205A
:103D600070472DE9F843040025000026002C3DD0C3
:103D7000DFF81072E86A3968C96A88422FD2A869E8
:103D8000002804D43868C06AD0F13800A861DFF890
:103D9000FC815FF014096869E96A09FB01F141449B
:103DA000884216D1281D00F0E9FA3868C06AE86236
:103DB000DFF8D4010168EA6A914201D2E96A016040
:103DC000291DE86A09FB00F908EB090000F0AFFAC9
:103DD00002E03868C06AE8620120060006E0E86C8C
:103DE0003968C96A884201D2012006003000BDE866
:103DF000F28370B5040025000026002C3ED0DFF8C9
:103E000084010068854207D0202080F31188BFF329
:103E10004F8FBFF36F8FFEE7286D002807D120205A
:103E200080F31188BFF34F8FBFF36F8FFEE7286DCC
:103E3000401E2865E86AE96C88421FD0286D00287A
:103E40001CD1281D00F09AFAE86CE862E86AD0F10B
:103E50003800A861DFF830010168EA6A914201D2B6
:103E6000E96A0160291DDFF82421EB6A142043432D
:103E700002EB030000F05BFA01200600300070BD89
:103E800014780020F07800203C8D0008EC780020A9
:103E90002DE9F84F04000F00A0465FF00109002C47
:103EA00059D0D8F85000002807D1202080F311887D
:103EB000BFF34F8FBFF36F8FFEE7D8F84C00B842C7
:103EC00001D23E0002E0D8F84C000600D8F82C00E1
:103ED000B04240D0D8F8500048453CD1DFF8A400AB
:103EE0000068804507D1202080F31188BFF34F8FF1
:103EF000BFF36F8FFEE7D8F82C000500C8F82C60E0
:103F0000D8F81800002803D4D6F13800C8F81800F3
:103F1000DFF878A05FF0140BD8F814000BFB05F164
:103F20005144884217D118F1040000F027FADFF855
:103F300058000168D8F82C20914202D2D8F82C10F1
:103F4000016018F10401D8F82C000BFB00FB0AEB10
:103F50000B0000F0ECF9BDE8F18FDFF8A010086865
:103F6000002803D00868026D521C0265086870477B
:103F700000000000DC780020E0780020E4780020D9
:103F8000E0780020BC780020D4780020AC670020C6
:103F90002DE9F04105000C001A480768DFF85C8045
:103FA000D8F80000001D00F0E9F915F1010F08D163
:103FB000002C06D0D8F80000011D164800F0B7F913
:103FC0001AE0E8190600D8F800004660BE4207D2A1
:103FD000D8F80000011D1148006800F0B4F90BE0AA
:103FE000D8F80000011D0C48006800F0ACF90F483B
:103FF00001688E4200D20660BDE8F081BC780020E6
:10400000F4780020D0780020EC77002000780020A1
:10401000287800203C780020C0780020C478002058
:10402000C8780020CC780020D8780020EC780020D8
:104030002DE9F84F04005FF00008FFF7CBFBDFF835
:104040004892D9F80000002801D100F0BBF8DFF851
:104050003CA2DAF80000044269D1002C15D08C484B
:104060000068041914F0070F0FD014F1080014F0C1
:104070000704041B14F0070F07D0202080F31188D9
:10408000BFF34F8FBFF36F8FFEE7002C4FD0DFF8E9
:1040900004B2DBF80000A04249D37F480600006864
:1040A00005006868A04205D22868002802D02E00CA
:1040B0002D68F6E7D9F80000854238D07448316899
:1040C00002681144884629683160006840006968C8
:1040D000091B884215D205EB0400070017F0070002
:1040E000002807D0202080F31188BFF34F8FBFF343
:1040F0006F8FFEE76868001B78606C60380000F026
:1041000092F8DBF800106868091ACBF800106348D1
:10411000DBF800100268914202D2DBF80010016067
:104120006968DAF800000143696000202860FFF741
:1041300057FB18F00700002807D0202080F31188D3
:10414000BFF34F8FBFF36F8FFEE74046BDE8F28F9E
:1041500070B504002600002C33D04D480068404262
:1041600006443500494968680A68104207D1202092
:1041700080F31188BFF34F8FBFF36F8FFEE728687E
:10418000002807D0202080F31188BFF34F8FBFF3A2
:104190006F8FFEE768680A68104212D0286800280E
:1041A0000FD16A68086882436A60FFF713FB3949D8
:1041B0000A68686882180A60280000F034F8FFF77F
:1041C0000FFB70BD70B44FF470523548010011F010
:1041D000070F04D0C91DC908C900521A82180B0064
:1041E0002D48036000244460D41829480068241A2C
:1041F000E408E400244D2C6000202E68706000204C
:104200002E6830601800261A46602D6805604568E3
:10421000224E356045681F4E35605FF000451B4EED
:10422000356070BC704730B41B4A1168814201D2BE
:104230001268FAE7140051682144814204D153689E
:104240004168CB1853601000030041681944156899
:10425000A94210D10C4914680D68AC4208D04468DA
:10426000116849680C19446011680968016004E02C
:104270000968016001E011680160824200D01060AD
:1042800030BC704700000000A4780020B078002007
:10429000B48D0008A878002078780020AC78002041
:1042A0009C04002062F30F2262F31F42401810F0BA
:1042B000030308D0C91A1FD3DB0748BF00F8012D3C
:1042C00028BF20F8022D130030B4144615461039CB
:1042D00028BF20E93C00FAD8490728BF20E90C0094
:1042E00048BF40F8042D890028BF20F8022D48BFA0
:1042F00000F8012D30BC7047C91818BF00F8012D17
:10430000CB0728BF00F8012D704710F1080141606C
:104310005FF0FF31816010F10801C16010F1080108
:10432000016100210160704700210161704742680E
:104330004A6093688B609368596091600861036874
:104340005B1C0360704710B40B6813F1010F01D1BF
:10435000026907E010F1080254682468A34201D3FF
:104360005268F9E754684C604C68A1608A605160FB
:1043700008610468641C046010BC7047010008698F
:104380008A684B689A604A688B685A6042688A42B9
:1043900001D18A68426000220A610268521E0260EE
:1043A00000687047001F5FF080730360001F4B08B8
:1043B0005B000360001F0FF21503036014380260F6
:1043C000001F7FF0020303602038704773480068C5
:1043D00010F1010F07D0202080F31188BFF34F8F19
:1043E000BFF36F8FFEE7202080F31188BFF34F8F5C
:1043F000BFF36F8FFEE7E0B569480168694A9142F3
:1044000007D1202080F31188BFF34F8FBFF36F8F48
:10441000FEE700686449884207D1202080F31188B4
:10442000BFF34F8FBFF36F8FFEE7604801780191B4
:10443000FF21017001788DF800109DF8001011F037
:1044400020015B4A11705B4907220A609DF8002039
:10445000120608D50A68521E0A609DF80020520014
:104460008DF80020F2E70A68D2F10702042A07D08B
:10447000202181F31188BFF34F8FBFF36F8FFEE7C9
:104480000A6812020A600A6812F4E0620A6001997E
:1044900001704948016851F470010160016851F0F0
:1044A0007041016000F092F800203C49086000F083
:1044B0005BFC4248016851F04041016000F044FC5F
:1044C00000200EBD202080F31188BFF34F8FBFF373
:1044D0006F8F32490A68521C0A60096801290AD1A3
:1044E00037490968090606D080F31188BFF34F8F5A
:1044F000BFF36F8FFEE7704728490868002807D18F
:10450000202080F31188BFF34F8FBFF36F8FFEE73A
:104510000868401E08600868002802D1002080F367
:104520001188704780B5202080F31188BFF34F8F2A
:10453000BFF36F8FFFF7CBF9002803D05FF08050F7
:104540001F490860002080F3118801BDEFF305804A
:10455000102811D31B4A1268125C11000A00144B78
:104560001B78D2B29A4207D2202282F31188BFF37D
:104570004F8FBFF36F8FFEE70E4A1268124B1B6816
:1045800013F4E0639A4207D2202282F31188BFF32A
:104590004F8FBFF36F8FFEE77047000000000020D1
:1045A00000ED00E071C20F4170C20F4100E400E075
:1045B00018790020B478002020ED00E034EF00E00E
:1045C00004ED00E0B88D00080CED00E00848002183
:1045D00001600021074A1160074909684FF47A72A7
:1045E000B1FBF2F1491E054A1160072101607047D5
:1045F00010E000E018E000E00C00002014E000E013
:104600007047EFF3058000280CD1EFF310800028ED
:1046100003D1EFF31180002807D0DFF8AC01006868
:10462000022802D17FF005000AE0DFF89C1108683B
:10463000002803D101200860002001E05FF0FF3076
:10464000704710B5EFF3058000280CD1EFF3108010
:10465000002803D1EFF31180002807D0DFF86801AC
:104660000068022802D17FF005000EE0DFF8584113
:104670002068012807D1FFF7C3FF02202060FFF761
:104680005CF8002001E05FF0FF3010BD2DE9FF472E
:1046900007008846140000200390EFF305800028EF
:1046A0006FD1EFF31080002803D1EFF311800028C1
:1046B00004D0DFF814010068022862D03800002816
:1046C0005FD08020824618200500002081465FF0E0
:1046D000FF300600002C33D02068002801D020686D
:1046E0008146A069002801D0A0690500002D04D0F2
:1046F000392D02D22079C00701D5002042E060693F
:10470000002802D0606980088246A06800280BD08B
:10471000E0685C2808D32069002805D0606900287B
:1047200002D0012006000DE0A06800280AD1E06850
:10473000002807D12069002804D10020060001E0EC
:1047400000200600012E0CD1A06802902069019083
:1047500000954346524649463800FEF779FE0390DD
:104760000FE0002E0DD103A801900095434652465C
:1047700092B249463800FEF7BAFE012801D0002067
:104780000390039804B0BDE8F08738B50400EFF358
:10479000058000280CD1EFF31080002803D1EFF33F
:1047A0001180002807D0DFF824000068022802D119
:1047B0007FF0050505E00025002C02D02000FEF763
:1047C00095FF280032BD000080780020807800200E
:1047D000074B0360074B0B60802313607047064B49
:1047E0000360064B0B604FF480731360704700004A
:1047F000E47400200C700020407500200C6C002038
:1048000038B586B0002400F027FADFF89804006875
:1048100000281ED0002004900020039005AA03A9C0
:1048200004A8FFF7DCFFDFF8805404980290039897
:104830000190022000900023059ADFF870140FF217
:104840001D10FEF705FE28602868002801D0012011
:104850000400002C07D1202080F31188BFF34F8F74
:10486000BFF36F8FFEE7200007B030BD2DE9FF4793
:1048700004000D0016001F00DDF830805FF0000915
:10488000002C07D1202080F31188BFF34F8FBFF396
:104890006F8FFEE7DFF80CA4DAF80000002822D0C2
:1048A000009501960294062D15DAFFF74AFA0228C0
:1048B00008D1002342466946DAF8000000F056FBB2
:1048C000814610E0002300226946DAF8000000F07B
:1048D0004DFB814607E000233A006946DAF8000004
:1048E00000F017FC8146484604B0BDE8F087F8B5F3
:1048F00005000E00DFF8B8030068C068C768381DFF
:10490000FFF73CFD97F8280040071CD52B0032002C
:10491000B9694919380000F090F8002819D0002032
:10492000009000232A0000213800FFF79FFF0400B9
:10493000002C07D1202080F31188BFF34F8FBFF3E5
:104940006F8FFEE705E097F8280010F0FE0087F86B
:1049500028003800396A8847F1BD000038B50400E6
:10496000684600F042F805000099280000F003F8BE
:1049700000F08CF8F4E77CB505000C00FEF72AFF88
:10498000684600F046F80600009800282AD1002C5E
:1049900008D1AE4206D3FEF723FF31002800FFF70F
:1049A000A6FF21E0002C08D0DFF8080300680068AB
:1049B000002801D1012400E000242200A91BDFF817
:1049C000E402006800F0DEFEFEF70AFF00280BD1CB
:1049D0005FF08050DFF8E0120860BFF34F8FBFF345
:1049E0006F8F01E0FEF7FCFE73BD0100DFF8C0220F
:1049F00010680068002801D1012000E00020086054
:104A00000868002803D11068C068006800E0002032
:104A1000704770B50400FEF756FF0500DFF89C6292
:104A20003068854204D200F0D0F80120206001E017
:104A3000002020603560280070BD2DE9F0410400A1
:104A40000D0016001F005FF0000865602461AE4293
:104A50000DD3F01BA169884202D30120804612E0E9
:104A6000211DDFF850020068FFF76DFC0BE0BE422D
:104A700004D2BD4202D30120804604E0211D8C48AF
:104A80000068FFF760FC4046BDE8F081F8B586B0ED
:104A9000002201A98348006800F00DFC002800F006
:104AA0009280019800280ED502AD002D07D120205C
:104AB00080F31188BFF34F8FBFF36F8FFEE7A968B4
:104AC00068682A68904701980028E1D40398060096
:104AD0007069002802D0301DFFF750FC05A8FFF7D1
:104AE00098FF0700019800280ED002280CD00BD3A5
:104AF00004283DD035D3062806D054D3082830D01A
:104B000002D3092834D05DE096F8280050F0010067
:104B100086F82800029B3A000299B06941183000DB
:104B2000FFF78BFF00281BD03000316A884796F8CA
:104B30002800400714D5002000900023029AB06995
:104B4000821800213000FFF791FE0400002C07D1ED
:104B5000202080F31188BFF34F8FBFF36F8FFEE7E4
:104B600096E796F8280010F0FE0086F828008FE7F8
:104B700096F8280050F0010086F828000298B061ED
:104B8000B069002807D1202080F31188BFF34F8F30
:104B9000BFF36F8FFEE73B003A00B169C9193000DF
:104BA000FFF74BFF74E796F82800800703D4300026
:104BB000FFF7CEFA05E096F8280010F0FE0086F820
:104BC000280065E764E707B0F0BD2DE9FC41DFF898
:104BD000E080D8F800000068002834D0D8F8000041
:104BE000C06800680500D8F80000C068C068070009
:104BF000381DFFF7C3FB3800396A884797F828004B
:104C00004007E4D5B86940190600B54207D27E6076
:104C10003F61391DD8F80000FFF795FBD7E700206A
:104C2000009000232A0000213800FFF71FFE040037
:104C3000002C07D1202080F31188BFF34F8FBFF3E2
:104C40006F8FFEE7C3E7D8F800001A490A68C8F872
:104C500000200860BDE8F3817CB5FFF733FC114C00
:104C6000206800281BD1164D2800FFF74EFB154E7B
:104C70003000FFF74AFB0E4805600E480660002032
:104C80000090114B114A10210A2000F0C5F8206055
:104C90002068002803D00E49206800F05DFDFFF772
:104CA0002BFC73BD0079002004790020448D00089E
:104CB000F8780020FC78002004ED00E0087900205E
:104CC0005078002064780020F4750020E473002000
:104CD0004C8D0008EFF30980BFF36F8F264B1A68E5
:104CE0001EF0100F08BF20ED108A20E9F04F106071
:104CF00009B44FF0200080F31188BFF34F8FBFF34A
:104D00006F8FFEF769FE4FF0000080F3118809BC39
:104D100019680868B0E8F04F1EF0100F08BFB0EC3B
:104D2000108A80F30988BFF36F8F7047124B1968A0
:104D30000868B0E8F04F80F30988BFF36F8F4FF039
:104D4000000080F3118870470C480068006880F309
:104D500008884FF0000080F3148862B661B6BFF394
:104D60004F8FBFF36F8F00DFDFF81400016841F44D
:104D70007001016070470000BC78002008ED00E081
:104D800088ED00E070B506000C003500002D07D15D
:104D9000202080F31188BFF34F8FBFF36F8FFEE7A2
:104DA000FFF790FB2968EA6B286C424301EB020095
:104DB000A8600020A863286868602968EA6B521E12
:104DC000286C424301EB0200E8605FF0FF3085F899
:104DD000440085F84500002C12D12869002817D01E
:104DE00015F11000FEF778FE002811D05FF080501A
:104DF000DFF8D0170860BFF34F8FBFF36F8F07E066
:104E000015F11000FFF781FA15F12400FFF77DFA84
:104E1000FFF772FB012070BD2DE9F84306000C007E
:104E200015001F00DDF82090002E07D1202080F310
:104E30001188BFF34F8FBFF36F8FFEE7002F07D1AD
:104E4000202080F31188BFF34F8FBFF36F8FFEE7F1
:104E5000002D01D0002C01D0012000E00020C0B2C4
:104E6000002807D1202080F31188BFF34F8FBFF3B4
:104E70006F8FFEE7002D01D1002C01D1012000E051
:104E80000020C0B2002807D1202080F31188BFF392
:104E90004F8FBFF36F8FFEE750200090009850288F
:104EA00007D0202080F31188BFF34F8FBFF36F8F9F
:104EB000FEE70098B846B8F1000F0BD0012088F843
:104EC0004600CDF800804B46DBB22A0021003000BE
:104ED00000F031F84046BDE8F2832DE9F8430400C4
:104EE0000D001700002C07D1202080F31188BFF39C
:104EF0004F8FBFF36F8FFEE7002D02D15FF00009E7
:104F000001E005FB04F919F15000FFF791F80600E4
:104F1000002E0DD0300050308046002086F846002C
:104F200000963B00DBB242462900200000F003F867
:104F30003000BDE8F2832DE9F04105000C001600B9
:104F40001F00DDF81880002C02D1C8F8008001E0B5
:104F5000C8F80060C8F83C50C8F8404001214046FD
:104F6000FFF710FF88F84C70BDE8F0812DE9F7439A
:104F700080460D00994600244646002E07D1202089
:104F800080F31188BFF34F8FBFF36F8FFEE7002DC3
:104F900002D1306C002801D1012000E00020C0B215
:104FA000002807D1202080F31188BFF34F8FBFF373
:104FB0006F8FFEE7B9F1020F02D1F06B012801D12A
:104FC000012000E00020C0B2002807D1202080F39B
:104FD0001188BFF34F8FBFF36F8FFEE7FEF7B1FE6F
:104FE000002802D10298002801D1012000E0002011
:104FF000C0B2002807D1202080F31188BFF34F8F63
:10500000BFF36F8FFEE7FFF75DFAB06BF16B88427D
:1050100002D3B9F1020F27D14A462900300000F02F
:10502000DEFA0700706A00280FD016F12400FEF7A0
:1050300053FD002814D05FF08050DFF88815086019
:10504000BFF34F8FBFF36F8F0AE0002F08D05FF0E0
:105050008050DFF870150860BFF34F8FBFF36F8F7C
:10506000FFF74AFA012052E00298002803D1FFF727
:1050700043FA00204BE0002C04D16846FEF772FD95
:1050800001200400FFF738FAFEF7A4FBFFF71AFA35
:1050900096F9440010F1010F02D1002086F8440077
:1050A00096F9450010F1010F02D1002086F8450065
:1050B000FFF722FA02A96846FEF760FD002820D11A
:1050C000300000F03AFB002815D0029916F11000CC
:1050D000FEF7BBFC300000F0EBFAFEF781FB002886
:1050E00091D15FF08050DFF8DC140860BFF34F8F80
:1050F000BFF36F8F87E7300000F0DAFAFEF770FB3E
:1051000081E7300000F0D4FAFEF76AFB0020BDE82A
:10511000FE832DE9F04707000C00150098463E007D
:10512000002E07D1202080F31188BFF34F8FBFF3EB
:105130006F8FFEE7002C02D1306C002801D10120D6
:1051400000E00020C0B2002807D1202080F31188A1
:10515000BFF34F8FBFF36F8FFEE7B8F1020F02D19D
:10516000F06B012801D1012000E00020C0B200282E
:1051700007D1202080F31188BFF34F8FBFF36F8FCB
:10518000FEE7FFF7E3F9EFF31189202080F31188A0
:10519000BFF34F8FBFF36F8FB06BF16B884202D3B9
:1051A000B8F1020F20D196F945A042462100300007
:1051B00000F015FA50465FF0FF3140B288420DD141
:1051C000706A00280ED016F12400FEF785FC002836
:1051D00008D0002D06D00120286003E01AF101005C
:1051E00086F84500012000E0002089F31188BDE821
:1051F000F0872DE9F84306000C003500002D07D19B
:10520000202080F31188BFF34F8FBFF36F8FFEE72D
:10521000286C002807D0202080F31188BFF34F8F1F
:10522000BFF36F8FFEE72868002802D1A868002826
:1052300001D1012000E00020C0B2002807D12020C9
:1052400080F31188BFF34F8FBFF36F8FFEE7FFF737
:105250007DF9EFF31187202080F31188BFF34F8F82
:10526000BFF36F8FD5F83880E86B80451ED295F973
:10527000459018F10100A86348465FF0FF3140B245
:1052800088420DD1686A00280ED015F12400FEF77F
:1052900023FC002808D0002C06D00120206003E069
:1052A00019F1010085F84500012000E0002087F396
:1052B0001188BDE8F2832DE9F64182B080460E00E8
:1052C00000244746002F07D1202080F31188BFF328
:1052D0004F8FBFF36F8FFEE7002E02D1386C00288E
:1052E00001D1012000E00020C0B2002807D1202019
:1052F00080F31188BFF34F8FBFF36F8FFEE7FEF788
:1053000020FD002802D10398002801D1012000E0EF
:105310000020C0B2002807D1202080F31188BFF3FD
:105320004F8FBFF36F8FFEE7FFF7CCF8BD6B002DFB
:105330001BD03100380000F0A0F9681EB86338694E
:1053400000280ED017F11000FEF7C6FB002808D089
:105350005FF08050DFF86C120860BFF34F8FBFF32F
:105360006F8FFFF7C9F8012057E00398002803D199
:10537000FFF7C2F8002050E0002C04D16846FEF789
:10538000F1FB01200400FFF7B7F8FEF723FAFFF75F
:1053900099F897F9440010F1010F02D1002087F825
:1053A000440097F9450010F1010F02D1002087F861
:1053B0004500FFF7A1F803A96846FEF7DFFB0028C8
:1053C00020D1380000F0ABF9002815D0039917F16F
:1053D0002400FEF73AFB380000F06AF9FEF700FA05
:1053E0000028A1D15FF08050DFF8D8110860BFF32A
:1053F0004F8FBFF36F8F97E7380000F059F9FEF732
:10540000EFF991E7380000F053F9FEF7E9F93800B9
:1054100000F085F9002887D0002004B0BDE8F081B5
:105420002DE9F34182B08046002447460025002F35
:1054300007D1202080F31188BFF34F8FBFF36F8F08
:10544000FEE7386C002807D0202080F31188BFF3D6
:105450004F8FBFF36F8FFEE7FEF773FC002802D17A
:105460000398002801D1012000E00020C0B20028EC
:1054700007D1202080F31188BFF34F8FBFF36F8FC8
:10548000FEE7FFF71FF8BE6B002E1CD0701EB8633E
:105490003868002802D1FEF760FDB860386900283E
:1054A0000DD017F11000FEF717FB002807D05FF0B2
:1054B000805044490860BFF34F8FBFF36F8FFFF7F1
:1054C0001BF801207AE0039800280DD1002D07D0A9
:1054D000202080F31188BFF34F8FBFF36F8FFEE75B
:1054E000FFF70AF8002069E0002C04D16846FEF7B7
:1054F00039FB01200400FEF7FFFFFEF76BF9FEF712
:10550000E1FF97F9440010F1010F02D1002087F864
:10551000440097F9450010F1010F02D1002087F8EF
:105520004500FEF7E9FF03A96846FEF727FB0028C0
:105530002AD1380000F0F3F800281FD0386800287E
:1055400007D1FEF7BFFFB868FEF70BFC0500FEF7BA
:10555000D3FF039917F12400FEF777FA380000F023
:10556000A7F8FEF73DF900288BD15FF08050154970
:105570000860BFF34F8FBFF36F8F82E7380000F0F2
:1055800097F8FEF72DF97CE7380000F091F8FEF768
:1055900027F9380000F0C3F800283FF472AF002D5F
:1055A0000BD0FEF78FFF380000F00EF80600310038
:1055B000B868FEF76DFCFEF79FFF002004B0BDE861
:1055C000F081000004ED00E00100486A002804D0EA
:1055D000086B0068D0F1380000E0002070472DE92A
:1055E000F84F06000F0014005FF00008B56B306C38
:1055F000002809D1306800283AD1B068FEF7F9FBDD
:1056000080460020B06033E0002C14D1D6F84090E2
:10561000BA46D6F804B04A4651465846FDF734F922
:105620007068316C084470607068B16888421FD33C
:10563000306870601CE0D6F84090BA46D6F80CB0DE
:105640004A4651465846FDF71FF9F068316C494209
:105650000844F060F0683168884204D2B068316C68
:1056600049420844F060022C02D1002D00D06D1E8A
:10567000681CB0634046BDE8F28F2DE9F04104009C
:105680000D00206C002811D0E068216C0844E06017
:10569000E068A168884201D32068E060266CE76872
:1056A000A846320039004046FDF7EEF8BDE8F0812B
:1056B000F8B50400FEF706FF94F94550280040B203
:1056C00001280CDB606A002809D014F12400FEF7E1
:1056D00003FA002801D0FEF798FA6D1EEEE75FF09E
:1056E000FF3684F84560FEF707FFFEF7EBFE94F9FE
:1056F0004470380040B201280CDB2069002809D032
:1057000014F11000FEF7E8F9002801D0FEF77DFA49
:105710007F1EEEE784F84460FEF7EEFEF1BD38B57B
:105720000400FEF7CFFEA06B002801D1012500E0A8
:105730000025FEF7E1FE280032BD38B50400FEF773
:10574000C1FEA06BE16B884201D1012500E000257C
:10575000FEF7D2FE280032BD10B40023082B0CD275
:10576000074C54F83320002A05D144F8331004EBD9
:10577000C302506001E05B1CF0E710BC7047000002
:1057800094760020F8B504000D0016002700FEF7FF
:1057900099FE97F9440010F1010F02D1002087F81B
:1057A000440097F9450010F1010F02D1002087F85D
:1057B0004500FEF7A1FEB86B002805D13200290094
:1057C00017F12400FEF764F93800FFF771FFF1BD0F
:1057D00010B50400002C01D1012033E0A06900289D
:1057E000FFD194F83900002805D1002084F8380052
:1057F000200000F0E5FD242084F839002068C0680E
:1058000030F400502168C860200000F09BFA206846
:10581000006930F49040216808612068406930F0E8
:105820002A00216848612068C06850F4005021684F
:10583000C8600020E063202084F83900202084F82C
:105840003A00002010BD2DE9FC4705000C001600B1
:105850001F005FF0000A95F83900202860D1002C65
:1058600003D0300080B2002801D1012059E095F822
:105870003800012801D1022053E0012085F83800CA
:105880000020E863212085F8390000F06FFE814692
:10589000AE84EE84002085F83800E88C00282FD0F4
:1058A000E88C401EE884A868B0F5805F18D10097A6
:1058B0004B4600228021280000F052F9002801D038
:1058C00003202EE0A046B8F80000C005C00D2968EE
:1058D00048602869002801D1A41CDEE7641CDCE7CD
:1058E00000974B4600228021280000F039F900285B
:1058F00001D0032015E0207829684860641CCCE7BB
:1059000000974B4600224021280000F029F900288A
:1059100001D0032005E0202085F83900002000E0B8
:105920000220BDE8F6872DE9FC4705000C001600B3
:105930001F005FF0000A95F83A00202865D1002C7E
:1059400003D0300080B2002801D101205EE095F83C
:105950003800012801D1022058E0012085F83800E4
:105960000020E863222085F83A0000F0FFFD814620
:10597000AE85EE85002085F83800E88D00283FD000
:10598000E88D401EE885A868B0F5805F1ED10097BD
:105990004B4600222021280000F0E2F8002801D028
:1059A000032033E0A0462869002807D12868406812
:1059B000C005C00DA8F80000A41CDEE728684068F8
:1059C00000F0FF00A8F80000641CD6E700974B46E3
:1059D00000222021280000F0C3F8002801D0032075
:1059E00014E02869002804D1286840682070641CED
:1059F000C3E72868406810F07F002070641CBCE793
:105A0000202085F83A00002000E00220BDE8F6875B
:105A10002DE9F8430600306807683068D0F80C803C
:105A20003068D0F814900020002517F00F04002CE7
:105A300008D1B80606D55FEA886003D5300000F0CB
:105A40002AF98BE0002C77D05FEAC97002D418F4F1
:105A5000907F71D017F00100C0B2002806D05FEA35
:105A6000C85003D5F06B50F00100F063780708D5FB
:105A700019F00100C0B2002803D0F06B50F0020012
:105A8000F063B80708D519F00100C0B2002803D0B0
:105A9000F06B50F00400F06338070BD55FEA8860C4
:105AA00004D419F00100C0B2002803D0F06B50F00C
:105AB0000800F063F06B00283DD0B80605D55FEA1A
:105AC000886002D5300000F0E6F83068406980094F
:105AD00010F001000500F06B000701D4002D25D067
