:020000040800F2
:1000000010150020F14600089727000899270008DE
:100010009B2700089D2700089F270008000000007C
:10002000000000000000000000000000A127000800
:10003000A327000800000000A5270008A727000844
:100040003D47000841470008454700084947000868
:100050004D47000851470008554700085947000818
:100060005D470008614700086547000869470008C8
:100070006D47000871470008754700087947000878
:100080007D47000881470008854700088947000828
:100090008D470008914700089547000899470008D8
:1000A0009D470008A1470008A5470008A947000888
:1000B000AD470008B1470008B5470008B947000838
:1000C000BD470008C1470008C5470008C9470008E8
:1000D000CD47000863420008D1470008D547000813
:1000E000D9470008DD470008E1470008E547000858
:1000F000F5340008E9470008ED470008F14700081B
:10010000F5470008F9470008FD47000801480008C6
:1001100005480008094800080D4800081148000873
:1001200015480008194800081D4800082148000823
:1001300000F5E0700268914203D343681A4491428B
:1001400002D380680028F5D17047DFF86C17086883
:1001500090B94FF4805048604FF480324FF0FF3038
:10016000C86008610420DFF854378A604861C3F82A
:10017000BC01DFF84C0708600120704701F108035B
:1001800013F0070F0EBF0023C3F1080303F00703AA
:100190001944D21A8161C26042F001034B60091D0B
:1001A0004FF0280C41F802C0DFF80C271369C36137
:1001B00070472DE9FC4B074601F1080010F0070FCE
:1001C0000FBF8946C0F1080000F0070001EB0009ED
:1001D00002F1080111F0070F06D002F10800C0F18A
:1001E000080000F0070002441546A5EB090009EBE2
:1001F0000306A0EB030B43F00303C9F80430AE423F
:1002000028BF01F005FA2879C10758BF01F000FAAC
:10021000BBF1100F38BF01F0FBF9B869854208D176
:10022000F9688B44C7F80CB0BE614BF001007060F8
:1002300051E1786985420AD1B9688B44C7F808B0A2
:100240007E614BF00100706046F80BB043E16868D6
:1002500000F00301012940F0AC80C008C00001900B
:10026000C0081F2839D8AC68D5F80C8000904545E7
:1002700008BF01F0CDF9A54208BF01F0C9F96868CF
:100280000099C008C000B0EBC10F18BF01F0C0F961
:10029000009907F1280000EBC100844206D03969BB
:1002A0008C42C0F08180E268AA427DD1A04506D18F
:1002B00000983968012383409943396076E080458E
:1002C00006D0396988456FD3D8F80800A8426BD1A9
:1002D000C4F80C80C8F8084068E0EC68D5F81880CD
:1002E000AC420CD0A8683969884223D3C268AA42BC
:1002F00004BFA168A9421DD1C460A0601CE005F143
:1003000014010C6834B905F110010C68A4B101E0C6
:1003100011460C6804F114021068002802BF04F1B1
:10032000100210680028F3D13869814202D30022FC
:100330000A6001E001F06CF9B8F1000F36D0E9690C
:1003400007F5987000EB81000268954208D10460BF
:10035000A4B9E8697968012282409143796025E077
:100360003869804508D3D8F81010A94214BFC8F8DE
:100370001440C8F8104001E001F04AF9B4B13969FD
:100380008C4211D3C4F81880286928B1884226BF4E
:100390002061846101F03CF9686938B139698842AB
:1003A00002D36061846101E001F032F901996D18B6
:1003B0008B4469684908490069604BF0010070602E
:1003C0004FEADB0446F80BB01F2C23D807F12800B6
:1003D00000EBC4084546BBF1100F38BF01F018F917
:1003E000386820FA04F1CA0705D4012101FA04F49F
:1003F00004433C6007E0D8F80800396988422CBF04
:10040000054601F005F9C8F80860EE60B560C6F869
:100410000C8060E05FEA1B2008BF002123D0B0F50C
:10042000803F28BF1F211ED2A0F58072120C02F05F
:1004300008029040A0F58051090C01F004018840A9
:10044000A0F580431B0CC2F10E0203F00203521A06
:10045000D21A984002EBD032D01D2BFA00F101F0F5
:10046000010101EB4201F161002307F5987273610C
:1004700002EB810033617A6822FA01F3DC0707D4CA
:10048000012303FA01F1114379600660B0611DE0B8
:1004900002681F291DBF4908C1F119010BFA01F1BA
:1004A000594600E002465068C008C000584516D0C2
:1004B00002F11003C80F03EB8003490018680028FD
:1004C000F0D13869834204D31E60B261F660B66031
:1004D00001E001F09DF809F10800BDE8F68B3969EB
:1004E00090688A4228BF8842F3D3C6609660B060A5
:1004F000F2600020B061EEE72DE9FE4F04468B4626
:10050000A5692E46904699463146FFF711FE0268CE
:10051000416802EB010AAAF1270111F007000EBFA2
:100520000021C1F1080101F007010AEB0100A0F16F
:100530002F0706F110018F4238BF374607F1180226
:10054000002101920091A8F1280259462046FFF7A8
:1005500015FE07F1080010F0070F18BF01F058F85A
:100560001B20786007F1080104F5E07090E80C505A
:1005700081E80C50C0F800B0C0F80480C0F80C90BE
:10058000816007220198009900E0001D491C00F1DC
:10059000080353454260F8D30129D8BF01F038F869
:1005A000B74200F09580BF1B301D321DC15949086C
:1005B0004900D15147F0010070604FEAD70BF75165
:1005C000BBF11F0F21D804EBCB0000F12805A84692
:1005D000102F38BF01F01CF8206820FA0BF1CA0771
:1005E00005D4012101FA0BF10843206006E0A86858
:1005F000216988422CBF804601F00AF8AE60C8F835
:100600000C60C6F80880F5606FE0380A08BF00216A
:1006100023D0B0F5803F28BF1F211ED2A0F58072E5
:10062000120C02F008029040A0F58051090C01F074
:1006300004018840A0F580431B0CC2F10E0203F0B8
:100640000203521AD21A984002EBD032D01D27FA78
:1006500000F101F0010101EB420104EB81020023F2
:1006600002F59870F16173613361626822FA01F3F7
:10067000DB0707D4012303FA01F11143616006602F
:10068000B0611DE002681F291DBF4908C1F11901B1
:1006900007FA01F1394600E002465068C008C00080
:1006A000B84216D002F11003C80F03EB80034900D3
:1006B00018680028F0D12069834204D31E60B2611B
:1006C000F660B56011E003B0BDE8F04F00F0A0BFE8
:1006D0000BE0216990688A4228BF8842F3D3C66044
:1006E0009560B060F2600020B06103B0BDE8F08FAB
:1006F0002DE9F041704F05463868884608B9FFF784
:1007000024FDB96801EB08002F30491E20EA0101E1
:1007100088457DD205F5D876B06828B13268891849
:100720008A4275D2884273D300F0B2FF01001CBF29
:100730000C6811F1010F6BD03068201805F5D872E4
:1007400030605368984238BF18467060A86960BB33
:10075000286908B1814200D22961316174610020A9
:10076000F0614FF0FF303A686A62286205F12802B2
:100770000020D260926002F1080757611761801C67
:1007800010322028F5D34D48854208BFA4F1280235
:1007900028D055F8040CC00805EBC002A2F10800EF
:1007A0000A19121A283A01461CE005F5E0700246C3
:1007B00000E092687AB3136857681F44B942F8D1D1
:1007C000137B1F0727D4AB691768BB4223D3D2F82A
:1007D00004C06744BB421ED2A444C2F804C0E86807
:1007E000A96922182846FFF7C9FC1FE08068C0B13C
:1007F00003689342FAD1027B130712D402680160A6
:100800004368E418446043462846BDE8F041D0E41C
:100810000020BDE8F0812A69914238BF29610A1998
:10082000E5E7002322462846FFF766FEE868804594
:10083000EED2A0EB0800A969E86001EB0802AA610A
:1008400040F00100506048F00300486001F10800EA
:10085000BDE8F08130B4184B1A6882B94FF4805269
:100860005A604FF480344FF0FF32DA601A6104228C
:10087000124D9C605A61C5F8BC21114A1A6011F1F1
:10088000400F17D28269AAB1C368283199420BD2AE
:1008900000F5E0710C68A24203D34D682C44A242DB
:1008A00002D389680029F5D1C16999423CBF4FF054
:1008B000FF32C26100F0A8BED8040020E801002089
:1008C0006859883C2DE9F84F00258946090AC9F185
:1008D000000B08BF002323D0B1F5803F28BF1F23A2
:1008E0001ED2A1F58072120C02F008029140A1F50F
:1008F00080531B0C03F004039940A1F58044240CA1
:10090000C2F10E0204F00204D21A121BA14002EB43
:10091000D132D11D29FA01F303F0010303EB4203A5
:10092000074607F5987858F8230030B31F2B0FBF00
:100930004C465C08C4F1190409FA04F4AC46594663
:1009400000E064004268D208D200A2EB09028A42A9
:1009500003D21100054600F06981426910304FEA68
:10096000D47B50F82B00002A1CBF824294460028FA
:10097000E7D18B466046B0BBBDBB012202FA03F350
:100980005B005842796803430B4000F04E815842A7
:1009900003405B1E180B00F01000C340590901F022
:1009A0000801CB409A0802F00402D3405C0804F02E
:1009B00002040818E3401018C3F34006201830441E
:1009C000F3401B1858F823000DE008464168C90899
:1009D000C900A1EB090159453CBF8B460546016999
:1009E0000029F2D140690028F0D1002D00F01D81CE
:1009F000B868A0EB0900834580F0178139698D4202
:100A0000C0F011816868C008C00009EB0B01884282
:100A100018BF00F0FDFD05EB0906B54280F003812B
:100A2000EC68D5F818A0AC420CD0A86839698842A7
:100A300023D3C268AA4204BFA168A9421DD1C460E1
:100A4000A0601CE005F114010C6834B905F1100137
:100A50000C68A4B101E011460C6804F1140210689E
:100A6000002802BF04F1100210680028F3D1386991
:100A7000814202D300220A6001E000F0C9FDBAF110
:100A8000000F36D0E86908EB800001688D4209D17B
:100A90000460200014D1E869796801228240914302
:100AA000796026E03869824508D3DAF81010A94247
:100AB00014BFCAF81440CAF8104001E000F0A8FDC5
:100AC000BCB13869844212D3C4F818A0286930B187
:100AD0003969884226BF2061846100F099FD686908
:100AE00038B13969884202D36061846101E000F065
:100AF0008FFDBBF1100F0CD2D94449F00300291D22
:100B00006860281D51F8092042F0010240F80920D0
:100B100088E049F0030068604BF0010070604FEA24
:100B2000DB0046F80BB01F281DD807EBC00101F110
:100B30002804396821FA00F2D307A34605D401221C
:100B400002FA00F00843386006E0A068396988427C
:100B50002CBF834600F05CFDA660CBF80C60C6F8A5
:100B600008B0F4605EE05FEA1B2008BF002123D0DC
:100B7000B0F5803F28BF1F211ED2A0F58072120C55
:100B800002F008029040A0F58051090C01F0040128
:100B90008840A0F580431B0CC2F10E0203F0020353
:100BA000521AD21A984002EBD032D01D2BFA00F123
:100BB00001F0010101EB4201F16100227261326139
:100BC00008EB81007A6822FA01F4E30707D40124D4
:100BD00004FA01F1114379600660B0611DE002681A
:100BE0001F291DBF4908C1F119010BFA01F159462E
:100BF00000E002465068C008C000584518D002F115
:100C00001003C80F03EB8003490018680028F0D1D7
:100C10003869834204D31E60B261F660B66001E0B9
:100C200000F0F6FC14E100F0F3FC0EE18B46A2E6C6
:100C3000396990688A4228BF8842F1D3C6609660BD
:100C4000B060F2600020B061ECE72DE9F84F064695
:100C50008846716848420140491E080B00F01000A8
:100C6000C1404A0902F00802D1408B0803F0040396
:100C7000D9404D0805F002051018E9401818C1F3D5
:100C80004004281806F5987A2044E14009185AF8DB
:100C900021104868C008C0000D46A0EB080909E013
:100CA00001464868C008C000A0EB080048453CBFAA
:100CB00081460D4608690028F2D149690029F0D122
:100CC00030698542C0F0BF806968C90808EB090B2C
:100CD000C900594518BF00F09BFC05EB0800854290
:100CE000009080F0B080EF68AC69AF420CD0A8688B
:100CF0003169884223D3C268AA4204BFB968A942B5
:100D00001DD1C760B8601CE005F114010F6837B948
:100D100005F110010F68A7B101E011460F6807F156
:100D200014021068002802BF07F1100210680028A2
:100D3000F3D13069814202D300220A6001E000F061
:100D400067FC002C31D0E8690AEB800001688D4215
:100D500008D107608FB9E869716801228240914328
:100D6000716022E03069844205D32169A94214BF31
:100D70006761276101E000F04BFCB7B13069874241
:100D800011D3BC61286930B13169884226BF38610E
:100D9000876100F03DFC686938B13169884202D34F
:100DA0007861876101E000F033FCB9F1100F0BD2DC
:100DB0004BF00300291D6860281D51F80B2042F0FC
:100DC000010240F80B203DE048F003012A1D696054
:100DD00049F0010042F80800009941F80990D6F85E
:100DE00008804FEAD80BBBF1200F28BF00F010FCA1
:100DF000B8F1000F22D006EBCB00776900F1280490
:100E0000A246B8F1100F38BF00F002FC306820FA9B
:100E10000BF1CA0705D4012101FA0BF10843306038
:100E200006E0A068316988422CBF824600F0F0FBE2
:100E3000A760CAF80C70C7F808A0FC60C6F8089054
:100E40000098706104E000F0E3FB0020BDE8F28F41
:100E500005F10800BDE8F28F2DE9FE4F0546AFF31E
:100E60000080F52DDFF89C6780F004810B2D31BFE9
:100E700010250B35ED08ED003068EC08E04010F06F
:100E8000030F46D0C04300F00100041906F128000A
:100E900000EBC408E700D8F808506868C008C00034
:100EA000B84218BF00F0B4FBD5F80890454508BF1C
:100EB00000F0AEFB4D4508BF00F0AAFB6868C00813
:100EC000C000B84218BF00F0A3FBC84507D1306886
:100ED000012101FA04F420EA040434600DE03069D1
:100EE000814508D3D9F80C10A94204D1C8F808905C
:100EF000C9F80C8001E000F08BFB47F00300291DCE
:100F00006860281DCA5942F00102C25105F1080467
:100F1000F8E0B168A94280F0BE80002800F0A1800E
:100F20004FF0010808FA04F1490000FA04F44842BD
:100F300001430C4060420440641E200B00F010008E
:100F4000C440610901F00801CC40A20802F004028B
:100F5000D440630803F002030818DC401018C4F3FF
:100F6000400718183818FC40241806F1280000EB38
:100F7000C40AE700DAF80890D9F80400C008C000F5
:100F8000B84218BF00F044FBD9F808B0D14508BFFB
:100F900000F03EFBD94508BF00F03AFBD9F8040049
:100FA000C008C000B84218BF00F032FBDA4506D1D5
:100FB000306808FA04F420EA040434600DE0316972
:100FC0008B4508D3DBF80C00484504D1CAF808B0BB
:100FD000CBF80CA001E000F01BFB7F1B45F00300E9
:100FE00009F10402C9F8040047F00101515109EB6D
:100FF00005020192D751B4684FEAD40ABAF1200F22
:1010000028BF00F005FB34B3CDF800A006F128009E
:10101000756900EBCA0AD346102C38BF00F0F8FA05
:101020003168009821FA00F2D30704D408FA00F0DE
:101030000843306007E0DAF80800316988422CBFC5
:10104000834600F0E5FACAF80850CBF80C50C5F812
:1010500008B0C5F80CA0B76009F1080401987061E8
:1010600050E07068C0B329463046FFF7EEFD04003B
:1010700011D047E015F1400F28BF4FF0FF350AD2DD
:101080000B35ED087068ED0028B129463046FFF7B2
:1010900019FC040036D1B068A8421DD3411B726907
:1010A00010290AD350197061B16041F00103436007
:1010B000415045F0030555600BE00021B1607161BE
:1010C000131D40F003015160111D1C5844F0010430
:1010D0000C5002F1080415E0F06885420DD2401B67
:1010E000B169F0604A19B26140F00100506045F00A
:1010F00003054D6001F1080404E029463046FFF77E
:10110000F7FA0446AFF300802046FFF7EEBA002856
:1011100000D170472DE9F047A0F10805AFF300803A
:10112000DFF8E06431698D42C0F05982686800F0F0
:101130000302012A00F05382C2084FEAC209C20723
:1011400005EB090839D42C6810F0030F00F0498230
:10115000604205448D42A144C0F0418270698542DD
:1011600000F0C680E408202C5ED2D5F80CA0AF6851
:10117000554508BF00F04CFABD4208BF00F048FAE0
:101180006868C008C000B0EBC40F18BF00F040FA98
:1011900006F1280000EBC400874205D031698F4278
:1011A0003FD3FA68AA423CD1BA452CD1306801211C
:1011B00001FA04F420EA04043460454580F00F820B
:1011C000D8F80440E00740F10A82A10700F16881E5
:1011D000B069804540F09F80F168B5618944C6F8E8
:1011E0000C9049F00100686071698D4202D10020C5
:1011F0007061B060F069484580F0F38100213046AD
:10120000FFF728FBEDE1824506D03069824508D31F
:10121000DAF80810A94204D1C7F80CA0CAF808707F
:10122000CBE700F0F5F9C8E7EC68AF69AC420BD04A
:10123000A868884222D3C168A94204BFA268AA4212
:101240001CD1C460A0601BE005F11402146834B91D
:1012500005F1100214689CB101E01A46146804F10B
:1012600014031868002802BF04F11003186800284E
:10127000F3D18A4202D30021116001E000F0C8F9E5
:10128000002F9AD0E96906F5987000EB810002689A
:10129000954209D10460200011D1E86971680122EA
:1012A00082409143716088E73069874205D339698C
:1012B000A94214BF7C613C6101E000F0A9F9002C57
:1012C0003FF47BAF31698C42ABD3A761286928B169
:1012D000884226BF2061846100F09AF9686900287D
:1012E0003FF46BAF316988429BD36061846164E7EE
:1012F00098F8040000F0030003287FF45EAFC6F8FE
:10130000089049F00101D8F8040040084000C8F8EE
:10131000040069600AE0706980450AD1B1687561AE
:101320008944C6F8089049F00100686045F80990C2
:1013300057E1E408E400A144E408202C3AD2D8F8AC
:101340000CA0D8F80870D04508BF00F061F9B84586
:1013500008BF00F05DF9D8F80400C008C000B0EB89
:10136000C40F18BF00F054F906F1280000EBC400C8
:10137000874207D031698F42C0F08580FA684245C4
:1013800040F08180BA4507D13068012101FA04F4A8
:1013900020EA0404346078E0824506D03069824552
:1013A00071D3DAF8081041456DD1C7F80CA0CAF81E
:1013B00008706AE0D8F80C40D8F8187044450DD091
:1013C000D8F808003169884223D3C268424504BF77
:1013D000A16841451DD1C460A0601CE008F1140162
:1013E0000C6834B908F110010C68A4B101E0114691
:1013F0000C6804F114021068002802BF04F1100206
:1014000010680028F3D13069814202D300220A60BB
:1014100001E000F0FDF8002F37D0D8F81C1006F5D9
:10142000987000EB8100026890450AD104602000AA
:1014300012D1D8F81C00716801228240914371607A
:1014400023E03069874205D33969414514BF7C6187
:101450003C6101E000F0DCF8BCB131698C4212D390
:10146000A761D8F8100028B1884226BF20618461A6
:1014700000F0CEF8D8F8140038B13169884202D3B0
:101480006061846101E000F0C3F849F00100686028
:1014900045F8099071698D420BD1C6F80890A0E01B
:1014A00064086400C8F8044049F00100686045F829
:1014B00009904FEAD907202F22D206F1280000EB2D
:1014C000C704A046B9F1100F38BF00F0A1F830688A
:1014D00020FA07F1CA0705D4012101FA07F70743EB
:1014E000376006E0A068316988422CBF804600F072
:1014F0008FF8A560C8F80C50C5F80880EC6070E063
:101500005FEA192008BF002123D0B0F5803F28BF33
:101510001F211ED2A0F58072120C02F0080290402A
:10152000A0F58051090C01F004018840A0F580432A
:101530001B0CC2F10E0203F00203521AD21A984099
:1015400002EBD032D01D29FA00F101F0010101EBCC
:10155000420106F59872002302EB8100E9616B619C
:101560002B61726822FA01F3DC0707D4012303FA26
:1015700001F1114371600560A8611DE002681F2937
:101580001DBF4908C1F1190109FA01F1494600E0FE
:1015900002465068C008C000484526D002F110033A
:1015A000C80F03EB8003490018680028F0D13069A8
:1015B000834204D31D60AA61ED60AD6001E000F0DC
:1015C00027F8306A401E30620BD1D6F8C80100E01F
:1015D00080680028FCD14FF0FF30306201E000F05D
:1015E00017F8AFF30080BDE8F087316990688A4250
:1015F00028BF8842E3D3C5609560A860EA600020F8
:10160000A861DEE7E801002030BC00207047000040
:10161000012000F053B8F0B4024610689568131822
:10162000506803EB5004C0071DD54D441BE013F870
:10163000017B05F8017B491EF9D1A0B1B60813F86A
:10164000011B06F00306032E08BF13F8016B01EB24
:1016500006214942801C294405D011F8016B05F888
:10166000016B401EF9D1A3420ED013F8016B16F0A6
:10167000030104BF13F8011BC91C30090F28DAD17C
:1016800013F8010B0F30D6E7F0BC02F10C007047E5
:101690000749086808B1002070470648C008C00024
:1016A00008600549C908C900091A0160704700BFF0
:1016B0000005002017150020102500202021090317
:1016C00026311820ABBEF9E72DE9F04F0FF2A41C2C
:1016D000A1B0DCE90089CDE900892A9DDFF8DC9B17
:1016E000049100248DF843500D944FF0FF3882464A
:1016F00016461F460FE0B3462C461BF8011B049804
:10170000D0470028049000F0A2800D98401C641E71
:101710000D90F2D176193078252808D100210022C9
:101720000791089209910A920B910C920DE06A467A
:101730004146304600F0D0FF050001D10D98A1E0F0
:10174000D9D50125E6E741F0010116F8010F20285F
:10175000F9D023280CD02B2804D02D2805D03028F0
:1017600009D076E041F00201EFE741F00401ECE737
:1017700041F00801E9E741F01001E6E70F9209E0C6
:101780000F98484505DA00EB800402EB4402303A3A
:101790000F92761C3278A2F130000A28F0D330780C
:1017A0002E2818BFCDF8388022D116F8010F2A282C
:1017B00007D138683860761C50F8042B38600E92D8
:1017C00016E02D280CBF761C002000220E920AE0A5
:1017D00040B90E9A4A4505DA02EB820403EB440352
:1017E000303B0E93761C3378A3F130020A2AEFD3F4
:1017F000ADF8401021A0317800F078FF08B116F85C
:10180000010B8DF842009DF84200682804D1307821
:1018100068280AD1622105E06C2804BF30786C2862
:1018200003D171218DF84210761C12A806903A4619
:1018300016F8013B02A9504600F064F838B912AA24
:1018400002A9504600F0C8F900287FF564AF404671
:1018500018E02A2892D13A683A6052F8040B3A60AC
:1018600000280F9003D540420F9041F00401761CF0
:1018700095E700000000000000000000686A6C743A
:101880007A4C000021B0BDE8F08F622820D0682893
:1018900011D06A2803D06C2827D0712825D1086878
:1018A000C01D20F007000860D0E900230830086060
:1018B000194610467047002A0A680A60106803D06B
:1018C000121D0A6000B217E0121D0A6080B217E014
:1018D000002A0A680A60106803D0121D0A6040B22C
:1018E0000AE0121D0A60C0B20AE0002A0A680A6013
:1018F000106803D0121D0A60C1177047121D0A60DC
:10190000002170477CB50D4611461C462E69B4F186
:10191000250200F04F811C3A00F08480121F022A39
:1019200040F280800E3A00F00981521F59D0093AE6
:1019300078D0921E16D0521E35D0521E022A71D96E
:10194000121F30D0521F00F09880521E49D0521EF4
:1019500000F0E280D21E00F0FF80921E41D0D21E25
:101960003FD02DE195F83A406C2C09D06869421CB3
:101970006A610A680A6052F8043B0A60335429E13C
:101980000A680A6052F8043B0A6000930022019240
:101990004FF0FF332B636A46294600F098F9002880
:1019A00040F1188103E195F83A000122FFF76DFF3D
:1019B000C5E90001002904D56869411C69612D222F
:1019C0000DE0288F810704D56869411C69612B22CD
:1019D00005E0C00721D56869411C696120223254A5
:1019E0001BE095F83A000022FFF74FFFC5E9000120
:1019F00095F83800010710D5D5E90023002B08BF62
:101A0000002A0AD044F02000782806D168693021E5
:101A10003154401C421C6A61345421466869304488
:101A2000E86087E00868C01D20F007000860D0E982
:101A3000002308300860C5E90023D5E90001C80F7C
:101A400004D06869411C69612D220DE0288F81074F
:101A500004D56869411C69612B2205E0C00704D5E3
:101A60006869411C69612022325468693044E86029
:101A70002146284600F036FAACE005F13A025078EB
:101A800020B14FF0FF340FF6043074E01078622874
:101A900008D0682824D06A2812D06C282ED071284B
:101AA0000ED02BE00A680A6052F8040B0A6020B9D5
:101AB0004FF0FF340FF6EC205DE0E96A017089E039
:101AC0000A680A6052F8040B0A6020B94FF0FF342C
:101AD0000FF6D0204FE0EA6AD317C0E9002379E07F
:101AE0000A680A6052F8040B0A6020B94FF0FF340C
:101AF0000FF6B0203FE0E96A01806BE00A680A60F7
:101B000052F8040B0A6020B94FF0FF340FF694200E
:101B100031E0E96A01605DE00A680A6052F8040B8E
:101B20000A60002120F0000221F0FF33C5E9002304
:101B3000EE607821284600F02DF94BE06C2285F804
:101B40003A200B680B6053F8042B0B6052BB4FF02C
:101B5000FF340FF684200EE095F83A206C2AF0D07E
:101B60000868086050F8044B0860EC603CB94FF01E
:101B7000FF340FF6482000F0D3FD201A76BD2E6BFF
:101B8000002E04D5204600F0EBFD044608E0324666
:101B90000021204600F008FE002814BF041B344634
:101BA000AC6117E0294600F092F8002812D54FF0FA
:101BB000FF3076BD6869411C69612522325409E015
:101BC0006969481C686125227254210002D0431CB7
:101BD0006B613454002076BD2DE9F0410E46054678
:101BE0009046726B7069316AB46A121AB069521AFF
:101BF000716A121AF069521A121A96F83800141BF8
:101C000041070DD4002C0BDD2746B0682021A847E2
:101C10000028B06057D0F06A401C7F1EF062F4D1FB
:101C2000736942463146284600F098FC00284AD1A4
:101C3000376A002F0ADDB0683021A8470028B0605D
:101C400041D0F06A401C7F1EF062F4D1B369F268A3
:101C50003146284600F082FCA8BB776A002F09DDD8
:101C6000B0683021A847B06068B3F06A401C7F1E9E
:101C7000F062F5D1F068B169F3694218314628463F
:101C800000F06CFCF8B9B76A002F09DDB0683021AC
:101C9000A847B060B8B1F06A401C7F1EF062F5D171
:101CA00096F8380041070BD5002C09DDB0682021DB
:101CB000A847B06038B1F06A401C641EF062F5D1EC
:101CC0000020BDE8F0814FF0FF30BDE8F0812DE944
:101CD000F8470D46A3B02F6B002F0646904648BF2D
:101CE0006FF000470FF60C1400F08AFDD4E90023D2
:101CF000696B4018CDE90123812828BF4FF0FF30E0
:101D000042D20024002F33DDD8F8001001AA684623
:101D100000F0E4FC8146B9F1000F38D4D8F8000097
:101D200010B9B9F1010932D44F4521DB6869484443
:101D300081280AD30021696303AA29463046FFF7A8
:101D40004BFF040014D40020686103ABD5F814A045
:101D50004A46694603EB0A0000F058FDCA44C5F83C
:101D600014A058F8040B002818BFA7EB0907C9D125
:101D70004CB903AA29463046FFF72EFF044614B992
:101D8000002068616863204624B0BDE8F0874FF00A
:101D9000FF34F8E72DE9FC4307466F293E6908BF89
:101DA000082405D041F02000782814BF0A2410240C
:101DB0003C25D7E90023642918BF69299046994634
:101DC00005D1002B03D5D8F1000869EB4909B9F119
:101DD000000F08BFB8F1000F1FD1386BE8B9082C0D
:101DE0004CD197F83800010748D530203B2586F8BC
:101DF0003B0043E000280ED597F8380000F01400AF
:101E0000102808D17B6B7969386A5B1A1B1A9A1AF9
:101E1000002AC8BF3A62BDE8F3838DF8001040463F
:101E200049462246E31700F045FD3032D0B26D1E20
:101E30003A28019504DB9DF80000A0F151018A18B1
:101E40007255404649462246E31700F033FD80466E
:101E50005FEA010908BFB8F1000F03D0F8687119F3
:101E60008842DCD3082C09D197F83800010705D542
:101E7000705D302802D06D1E30207055C5F13C02D7
:101E8000BA617119F960386B8242B3DA821A3A6228
:101E90004FF6EF70398F01403987BDE8F3832DE9A4
:101EA000D04306460F4614464FF00008DFF8109462
:101EB00012E0E00707D542464B463046394600F06F
:101EC00011FE06460F464046494642464B4600F044
:101ED00009FE641080468946002CEAD13046394616
:101EE000BDE8D0832DE9F84F05468A464AF0200424
:101EF0008EB0D5E90089612C02AE09D0286B00288C
:101F000048BF062003D408BF672C01D101202863F5
:101F1000D5E900014A005215521C0DD10B030BD01C
:101F2000AAF1610103201A29A86102D20FF2CC6143
:101F300010E00FF2CC610DE04A005215521C0ED198
:101F40000B030CD1AAF1610103201A29A86116D351
:101F50000FF2B461E868032200F058FCC0E1CDE95B
:101F60000C01DDE90C2323F00043B3F5801F0DD2F3
:101F70000027002B08BF002A019703D111E00FF2C0
:101F80008461E7E701AA00F07FFE0AE0CD48CE4970
:101F900000EB1350DDE90C2301900B40CB491046B8
:101FA0001943C5E90001612C0DD1E86830210170A9
:101FB000821CBAF1610FEA600CBF78215821417090
:101FC0006869801C6861D5E90001CDE90C01DDE993
:101FD0000C2333F0004104BF0028002300F04881A7
:101FE000612C40F0A080286B494600284CBF4FF080
:101FF000210B00F1010B404600220023DDE90C8992
:1020000000F07AFE01990BF1010738BF89F0004911
:10201000091F002F01918DF808200DF1090040F3F0
:102020003581A949009106464046494600220023D1
:1020300000F07AFE80F029814800400D00F11C027A
:1020400011D0002A0FDD40F2FF739A4205DBA04950
:1020500009F000400143002011E0009B194041EAD3
:10206000025140460BE028F0000039F0004108BF63
:1020700000280FBF49461C22494600F06DFE8046ED
:10208000894600F007FFFF1F002F044609DD00F01E
:102090001FFF02460B464046494600F02BFF804694
:1020A0008946F01D072104E004F00F0200F8012D1D
:1020B0002411002C01DD491EF6D5491E5CBF00220B
:1020C00000F8012DF9D5DCE00020194602AA0A44E7
:1020D00000E05B1E12F80149491E8442F9D00F2826
:1020E00004D10DF10900425C521C4254002904D570
:1020F0000198001D02AE5B1C0190581E0CD43118D3
:10210000AAF13A040A783032D7B23A2FA8BFA218FF
:10211000401E01F80129F5D5286B002840F1A78061
:10212000591E2963A3E001996A4A47F29750414337
:1021300091FBF2F2019229F00046D2F1070204DD90
:1021400040463146FFF7ABFE0AE0524200206249AA
:10215000FFF7A5FE02460B464046314600F03CFF25
:102160008046662C286B06BF019F0A3706273F185A
:10217000142FC8BF142730208DF8080089460DF1B0
:10218000090000E03046002F34DD0646404649464F
:1021900001F046F801460A4606F1080304200A2623
:1021A000B2FBF6F606EB860EA2EB4E02303203F8D7
:1021B000012C0A22B6FBF2F202EB820EA6EB4E06CF
:1021C0003036401E03F8026DE9D1083F002F03F1BD
:1021D0000806D7DD084601F037F802460B464046B0
:1021E000494600F087FE00223C4B00F07BFC804615
:1021F0008946CBE70DF10901401A0DF1090604E00B
:102200000199491E401E0191761C31783029F7D082
:10221000662C02D10199491C03E0652C0CBF0121F9
:1022200000212B6BCB189842B8BF431E002B1ED445
:10223000834204DAF05C3528A8BF392000DA302068
:102240001946721E02EB010800E05B1E18F80199A6
:10225000491E8145F9D0392802D1705C401C705468
:10226000002904D50198401C16465B1C019001987A
:1022700000B200901BB232465146284600F034F8B6
:102280002EE0C61D002F3FF7CFAE30460DF10901FD
:10229000401A03465845C8BF5B46002B0DF109069E
:1022A0003FF53AAF8342BFF60FAF0DF10900C15CB5
:1022B00007297FF709AF0F2007E70000CBCCCC0C34
:1022C0000000244002FCFFFFFFFF0F800000E03F02
:1022D0000000F07FA08601000000F03F84D7974106
:1022E0000FB0BDE8F08F00002DE9F84783B0064637
:1022F0008A461746984600F0F3F9B8F1000F406A95
:10230000356B90F8009002DC4FF00108BFA74AF04F
:102310002000BDF93040662808BF641C15D067282E
:1023200040F0848014F1040FC0F28680AC4280F249
:10233000838096F83800641C010702D4A845B8BF12
:10234000454620B22D1A48BF00250FFA84FAF068DE
:10235000B169BAF1000F25DC4A1C30234354002D2B
:1023600003DC96F83800010703D5F06800F8029006
:10237000521C15EB0A0FB8BF6C4220B244194142FF
:102380004445B8BFA046B26171620FFA88F5F561A5
:10239000F068B3692A463946184400F037FA641BDE
:1023A000B462C4E022B29045084417DA4246394686
:1023B00000F02CFAB0694044B061AAEB0801002D8E
:1023C000716203DC96F838100A0705D5F16801F848
:1023D0000090F069401CF061B562A8E0394600F059
:1023E00015FAB069002D5044A8EB040803DC96F8F8
:1023F00038100A0703D5F16801F80090401CB0615D
:102400000FFA88F08542F368B069B8BFA8460FFAA2
:1024100088F207EB0A01184400F0F8F9B1690FFAE5
:1024200088F00144B161281A706280E0BAF1610F4E
:1024300014D14FF0700A16E0A84504DA96F8381067
:102440000A0758BF45466D1E48BF0025BAF1670F01
:1024500014BF4FF0450A4FF0650A04E0BAF1410F8E
:1024600008BF4FF0500AB169F368481CB061002DF5
:1024700017F8012B5A5403DC96F838100A071BD5BD
:10248000F168431CB36101F80090002D14DDA8F140
:1024900001080FFA88F039468542F768B8BFA846A8
:1024A0000FFA88F2F81800F0B1F9B0690FFA88F164
:1024B00008446D1AB0617562F068B1690844002C77
:1024C00080F800A003D42B224270811C03E02D2150
:1024D00041706442811C00206A460AE023460A24B7
:1024E00093FBF4F404EB8405A3EB450302F8013BF2
:1024F000401C24B2002CF1DC012806DC4AF020024A
:10250000652A04BF302201F8012B48B9302001F8B8
:10251000010B07E0401E1DF80030303301F8013B8D
:102520000028F7DCF268B0691044091AF16196F8E6
:10253000380000F0140010280DD17269B169706A7A
:102540008A18F1698218B06A8A188218706B824200
:10255000BCBF821A326204B0BDE8F087F8B5054608
:102560000E4617461C46002074B117F8011BB068D0
:10257000A847B06030B1F06A401CF0620020641ED1
:10258000F3D1F2BD4FF0FF30F2BD00007072696E02
:1025900074665F733A20256E20646973616C6C6F9A
:1025A000776564007072696E74663A2062616420B7
:1025B000256E20617267756D656E74007072696E4C
:1025C00074665F733A2062616420257320617267CC
:1025D000756D656E740000007072696E74665F736D
:1025E0003A2062616420256C7320617267756D65A5
:1025F0006E74000000000000000000006E616E00BC
:102600004E414E00696E6600494E4600300030B4BF
:10261000002513E050F8042BD30744BFA9F10103B0
:102620009A18091F042942F8045BFAD213468C0752
:1026300044BF15809B1CC90748BF1D7050F8041B80
:102640000029E7D130BC7047FFE741381A288041A4
:10265000C00F7047A0F10901052901D3202801D13D
:102660000120704700207047A0F141011A2938BFAE
:10267000203070471B48704770B45368D418042B3F
:1026800009DA41B1057804F8015B10F8016B16B165
:102690005B1C491EF3E7536070BC704738B51446A5
:1026A0001D4661B1FFF7E8FF61686A6B20469047FD
:1026B0006FF00102811A02D0491E01D001E003E04F
:1026C00005E00021616032BD6FF0010032BD4FF0C6
:1026D000FF3032BDDA6B1047024BDFE7014BF9E701
:1026E00001487047540100201C010020C9B2027843
:1026F0008A421AB11CBF10F8012FF9E718BF002059
:102700007047B1F5807F02D34FF0FF307047017002
:10271000012070470078401E8041C043C00F7047C1
:1027200080B500B906A005490B681BB12222002123
:10273000984701E0FEF76CFF222002BDFC04002058
:10274000636F6E73747261696E742068616E646C1D
:1027500065723A20626164206D657373616765001C
:1027600000F10103810704D010F8011B820781B139
:10277000FAD10268A2F10131914311F0803104BF16
:1027800050F8042FF6E709BAB1FA81F100EBD10055
:10279000401CC01A70477047FEE7FEE7FEE7FEE701
:1027A0007047704770477047C9B2830706D0521E02
:1027B00022D310F8013B9942F7D11FE0083A13D316
:1027C00002F1040241EA012141EA014150F8043BCF
:1027D000121F21BF4B40A3F1013C2CEA030C1CF05B
:1027E000803FF3D0C9B2001F083210F8013B521EDF
:1027F00028BF91EA030FF8D818BF0120401E704788
:1028000080B5FFF737FF006C02BD000062B38B0795
:1028100008D0521E11F8013B00F8013B00F0248063
:102820008B07F6D1830740F0208000BF103A07D312
:1028300030B4B1E83810103AA0E83810F9D230BC02
:10284000530724BFB1E80810A0E8081044BF51F8AE
:10285000043B40F8043BD20724BF31F8022B20F898
:10286000022B44BF0B7803707047121F17D35B0015
:1028700009D151F8043B20F8023B1B0C121F20F831
:10288000023BF6D20BE051F8043B00F8013B1B0A77
:1028900020F8023B1B0C121F00F8013BF3D238BF9B
:1028A000121D521E24BF11F8013B00F8013BF8D85D
:1028B00070470000BBBBE1B1B2F5803F80F07E8085
:1028C000022A1ED98C46B1FBF2F102FB11C31B0494
:1028D00043EA1043B3FBF2FC02FB1C3380B240EA34
:1028E0000343B3FBF2F002FB103240EA0C4000233A
:1028F0007047022A05D98446B0FBF2F002FB10C2F1
:1029000070474AB105D100F0010249085FEA300082
:10291000704700220023704700F0A4BC0B000200A7
:10292000002100207047904271EB030CF6D3B3F501
:10293000803F2FD2F0B5B3FA83F7B1FA81F4A7F153
:102940000F0E3D1B5340CEF1200602FA0EF2F3416A
:102950005340B5F10F0746D80F3C2C444140C4F119
:102960002006A040F1414140B1FBF3F603FB1611F4
:10297000A2FB0645001BA94102D2761E80185941D0
:1029800080EA010221FA0EF362FA0EF200215A40A7
:102990003046F0BD30B4B1FBF3FC03FB1C11A2FBCD
:1029A0000C45001BA94103D2ACF1010C8018594120
:1029B00030BC02460B46604600217047B2F1807F72
:1029C00065D3F0B5B2FA82F7B1FA81F4C7F10F0618
:1029D0003D1B22FA06F307F1110EF24120355A4051
:1029E000B5F10F07B8D94140C4F12006A040F1412C
:1029F0004140B1FBF3FC03FB1C11A2FB0C45001B87
:102A0000A94103D2BCF1010C801859410F2F12D3F8
:102A10000F3FC90341EA5041B1FBF3F603FB161126
:102A2000A2FB0645D4EBC030A94102D2761E801825
:102A3000594146EACC3C07B34140C7F12006B840B3
:102A4000F1414140B1FBF3F603FB1611A2FB064531
:102A5000001BA94102D2761E8018594180EA01026A
:102A600021FA0EF3C7F1200462FA0EF20CFA07F015
:102A70005A402CFA04F13043F0BD80EA010221FAF9
:102A80000EF3002162FA0EF260465A40F0BD8C4609
:102A9000B1FBF2F102FB11C31B0243EA1063B3FB6B
:102AA000F2FC02FB1C331B024CEA002043EA1063D9
:102AB000B3FBF2FC02FB1C331B024CEA002043EA8E
:102AC0001063B3FBF2FC02FB1C331B024CEA002038
:102AD00043EA1063B3FBF2FC02FB1C324CEA002019
:102AE00000237047B0B581EA030C0CF0004C40F2B3
:102AF000FF7515EA11541DBF15EA1357AC42AF42DA
:102B000039E0E41923EA455343F48013C90241F044
:102B1000004141EA505EC7021100A7FB02020028F3
:102B20004FF00000EEFB01204FF00001E3FB072116
:102B300018BF42F00102401800214941E3FB0E0199
:102B4000A4F580640F0302D252004041494154F180
:102B500001046CDD470872F1004250F1000051EBB6
:102B60000451A1F580115CBF41EA0C01B0BD4CEAF3
:102B700005510020B0BD05EA1357AC4214BFAF4267
:102B800041E050EA410E1CBF52EA430E02E06146AA
:102B90000020B0BD24423C441BD15FEA070EF6D0B2
:102BA000090302BF01460020AEF1140EB1FA81F70D
:102BB000AEEB070401FA07FE0C37C7F1200100FA5B
:102BC00007F7C8404EEA000E23EA455343F480134A
:102BD000A2E733F00043B3FA83F704BFB2FA82FEF0
:102BE00077440B3FE41BB7F1200E2FBF02FA0EF320
:102BF000BB40C7F1200E22FA0EFE38BF43EA0E0397
:102C0000BA40641C82E750EA410E14BF52EA430EF8
:102C10006FF000014FF4001717EB430F8ABF1946FE
:102C200017EB410FB5E74CEA05510020B0BDD4F1D8
:102C30000104B4F120070FDAC4F12007520828BFBD
:102C400042F0010210FA07F501FA07F7E1BF2A4343
:102C5000E0403843E1400FE0352C98DCC7F1200418
:102C600052EA400220FA07F218BF42F0010231FA9C
:102C700007F0A1400A43002172F1004250F1000028
:102C800051EB0C01B0BD000010B5144600F002F885
:102C9000226010BDC1F30A5343B14A0012F5001F70
:102CA00028D2A3F2FE32A1EB0251704750EA410C48
:102CB00020D001F0004C31EA0C01B1FA81F204BFDE
:102CC000B0FA80F3D2180B3AB2F120032CBF00FA0D
:102CD00003F1914041EA0C013EBFC2F1200C20FA01
:102CE0000CF319439040524240F2FD33D21A01EBEB
:102CF00003517047002270474FF4001C1CEB410F3A
:102D000094BF1CEB430F09E041EA030C50EA4C0C62
:102D100052EA0C0C03D2994208BF9042704714BF8C
:102D20008B428242704700004FF4001C1CEB410FA5
:102D300094BF1CEB430F09E041EA030C50EA4C0C32
:102D400052EA0C0C03D28B4208BF8242704714BF78
:102D50009942904270470000124254D440F2FF7CE6
:102D60001CEA11530FD0634531D09B1863453CBF1B
:102D700001EB0251704701F0004141EA0C51002083
:102D8000AFF30080704750EA410320D001F0004CBF
:102D900091EA0C011CD0B1FA81F30B3B9A420DD998
:102DA000D21A994051EA0C01C3F1200C20FA0CFC14
:102DB00061449840531C40F2FF7CD7E7914041EAC0
:102DC0000C01C2F1200C20FA0CF31943904070471B
:102DD000B0FA80F31533202BE0D3202AEED3203A2B
:102DE000203B9A4209D9D21A00FA03F141EA0C01B8
:102DF0000020531C40F2FF7CB8E700FA02F141EAE0
:102E00000C0100207047524240F2FF7C1CEA115333
:102E10000DD06345DBD0B2EB030C3CBFA1EB0251FC
:102E200070470CF1010221EA035141F4801150EA8C
:102E3000410CCCD001F0004C352A27DC30B481EABB
:102E40000C01B2F1200309DAC2F12003044601FAB1
:102E500003F5D0402843D1409C400CE0C3F1200250
:102E6000450020FA03F418BF44F0010421FA03F0EE
:102E700091400C43002174F1004550F1000051EBEA
:102E80000C01244230BC7FF47BAF704761460020C8
:102E900076E70000C1F30A5340F2FE329B1A14DDBC
:102EA000D3F120034FEAE17208DDC90241EA505133
:102EB00041F00040D84080185040704703F2E130A4
:102EC00010B1D24382F000407047002070470000EC
:102ED000C11768B14840401AB0FA80F29040D21C45
:102EE000C907C2F5846241EA025202EBD0214005D3
:102EF0007047000070B44FF0004591EA030F40F1B5
:102F0000B3816B40841A71EB030603D2001BB141FD
:102F1000121973414FF4001C1CEB410F34BF7CEBC2
:102F2000430442E00C0DA4EB1356352E4FDC45EA6A
:102F3000C323DB0A45EAC121C912B6F120050DDD24
:102F400063FA05F6EB4086EA0305124218BF45F026
:102F50000105C01851F100010CD213E062FA06F528
:102F6000F2405540F3415A40B340F3405A40801874
:102F7000594107D349085FEA30005FEA350528BFA9
:102F800045F0010501F58011420875F1004250F14C
:102F9000000041EB04514E0016F5001F70BC38BF15
:102FA00070470020090D090570471CEB410F10D236
:102FB00052EA43060BD0BCEB410F05D80C0DAB43D6
:102FC000661E342EB6DD02E0AB438018594170BC5A
:102FD000704770BC70470000F0B540F2FF7581EAA1
:102FE000030C0CF0004C15EA11541DBF15EA1357E1
:102FF000AC42AF42E5E0BC41C1F31301C3F313039C
:10300000801A994143F4801304D2641E4000494160
:1030100080185941C90241EA5051B1FBF3F603FB54
:103020001611A2FB0675D7EBC020A94102D2761E6D
:1030300080185941C90241EA5051B1FBF3FE03FB2C
:103040001E11A2FB0E75D7EBC020A94103D2AEF131
:10305000010E80185941890241EA9051760546EAED
:103060008E2EB1FBF3F603FB1611A2FB0675D7EB10
:103070008020A94102D2761E80185941C90241EA36
:1030800050514EEA060EB1FBF3F603FB1611A2FBFC
:103090000675D7EBC020A94102D2761E801859418F
:1030A000C90241EA5051B1FBF3F703FB1711A2FB30
:1030B0000735D3EBC020A94167F100070CBF0042E0
:1030C00047F0010766F3D5274FEA1E31B80814F51B
:1030D000806412DDBD0775F1004250EB0E5051EBDC
:1030E000045111F5801F5CBF41EA0C01F0BD4CF0AA
:1030F0007F6141F0E0410020F0BDBD076D0840EA6E
:103100000E5041F48011D4F10104B4F120060ADA22
:10311000C4F120060200E04001FA06F3E140184342
:10312000B24015430EE0342C13DCC6F1200445EA0E
:1031300040056D0820FA06F2154321FA06F0A14079
:103140000D43002175F1004250F1000051EB0C01DC
:10315000F0BD00205FEA0C01F0BDCFB992185B41D1
:10316000B3FA83F704BFB2FA82F6BF190B3FB7F187
:1031700020062FBF02FA06F3BB40C7F1200622FA51
:1031800006F638BF3343BA401CB1E419641E33E776
:103190007F4231F00041B1FA81F404BFB0FA80F609
:1031A000A4190B3CB4F120062FBF00FA06F1A14090
:1031B000C4F1200620FA06F638BF3143A0403C1B7C
:1031C0001AE7AC421ABF05EA1357AF4212E050EAC1
:1031D00041061CBF52EA4306BFE750EA41073046AA
:1031E00061461CBF41EA0551F0BD52EA430C08BFDD
:1031F000C143F0BD00204FF4001616EB410F98BFFD
:1032000016EB430F08BF16EB410F24BFC14305E087
:1032100016EB430F0CBF61464CEA0551F0BD0000B0
:10322000400D491840EA81200CD2490DA1F580617A
:10323000491C40F0004005DBD1F11F0154BFC840DC
:10324000C017704700207047014648B1B0FA80F1BE
:103250008840C91CC1F58461090501EBD0214005F6
:103260007047000070470000841A71EB030604D217
:103270006E40001BB141121973414FF4001C1CEB4E
:10328000410F34BF7CEB430683E00C0DA4EB1356D7
:10329000362E00F37C80012E45EAC32341DC43EA4D
:1032A000525312BFD20292025B08240545EAC121A3
:1032B00041EA5051D2EBC020994125D407D1B0FA50
:1032C00080F610FA06F162D00020203608E0B1FA4C
:1032D00081F6B140C6F1200220FA02F21143B0405B
:1032E0004FEAF474B4EB465434F001064FEA740428
:1032F0000AD8D6F50016760D04F00044F04061FAC5
:1033000006F25040F1404840C00A40EA415021F0E6
:10331000004128BF5FEA500550F1000044EBD12185
:1033200035E0DB0A45EAC121C90AB6F120050EDD08
:1033300042EA0242120CC5F1200603FA06F6EB40FF
:1033400042EA06056D42984161F100010DE062FA22
:1033500006F5F240554063FA06FC82EA0C02F3409F
:103360005A406D42904161EB030111F4801F05D179
:10337000641E620502D06D004041494121F4801174
:10338000430875F1004350F1000041EB045170BC5B
:1033900070471CEB410F15D223F0004352EA43065D
:1033A0000BD04FEA4C0CBCEB410F04D80C0D661E41
:1033B000342EB7DDEBE7801A994150EA410608BF89
:1033C0000021E4E708BF1CEB430F28BF6FF00001AA
:1033D000DDE700001CB50121102000F0E9F905200F
:1033E000ADF8000010208DF8030003208DF80200D6
:1033F000DFF8AC426946200000F0F4F9012120001A
:1034000000F06AFA0421200000F06AFA13BD78B5D2
:1034100089B004000D0001214FF4005000F0C8F9FC
:103420000121102000F0C4F98020ADF8040018201C
:103430008DF8070003208DF8060001A9984800F0D8
:10344000D1F902A800F0E2FAADF80C40ADF808504E
:103450000020ADF80E000020ADF80A00914E02A940
:10346000300000F041FA0121300000F059FB012149
:10347000300000F020FB0821300000F02BFB702012
:10348000ADF814000120ADF816000020ADF81800CA
:10349000200080B24008ADF81A000020ADF81C00F2
:1034A00005A9300000F065FA0821300000F0F8FAB4
:1034B0000121300000F0E5FA01220121300000F086
:1034C000D2FA2C208DF8000001208DF80100012097
:1034D0008DF8020001208DF80300684600F039FBEA
:1034E0000121300000F01CFB0121300000F09AFAAD
:1034F0000AB070BD10B56B4C0121200000F0F9FA44
:10350000002852D00121200000F00AFB664908780B
:1035100000283BD1654A1068002806D0FF20644986
:1035200008801068401E10600DE0624A1078002884
:1035300008D01078401E5E4B1880002010700120CB
:10354000087000E022E00121200000F098FA01213B
:10355000200000F076FA0121200000F063FA5648BE
:1035600090F90000012808D154480168504A128897
:1035700092B2521C5118016017E050490A684C4839
:10358000008880B2121A521E0A600EE001200870F4
:103590000021200000F055FA0021200000F042FA3E
:1035A00046480168464800F023FB10BD70B5040092
:1035B0004448B0FBF4F0451E3A4E290089B2300071
:1035C00000F093FA290089B24908300000F08FFA20
:1035D0000021300000F087FA0121300000F022FACB
:1035E00070BD10B52F4C0021200000F02AFA0021F8
:1035F000200000F017FA31480168314800F0F8FA6D
:1036000010BD80B50421264800F06AF901BD80B5DF
:103610000421234800F060F901BD70B504000D00DD
:103620001600012C03DA284800F0E2FA36E01D48C3
:103630000088C00732D4142D02D32448854200D319
:103640002CE01D48067090F90010214A116090F995
:103650000010012905D11948006820181D4908608B
:1036600008E090F90000002804D114480068001B0D
:10367000184908604FF4807094FBF0F00B49086023
:103680004FF4807094FBF0F100FB11400949087081
:103690000020054908702800FFF788FF70BD000072
:1036A0000010014000340140E4010020F00400203B
:1036B0003034014009050020E5010020F804002015
:1036C000DC46000840420F00F8450008A1860100D2
:1036D00080012242F40400202DE9F04F0100002275
:1036E000002500200026394FD7F800C01CF00C0C34
:1036F0006346002B04D0042B05D0082B06D023E012
:10370000334A0A6022E0324A0A601FE03A6812F443
:1037100070123B6813F480331800920C921C150051
:10372000002804D12B4A02FB05F20A600BE03A683C
:10373000920304D5274A02FB05F20A6003E0244AFB
:1037400002FB05F20A6001E0214A0A603C6814F0BD
:10375000F0042409DFF8809019F804E00A6832FACE
:103760000EF24A603B6813F4E0631B0A19F8038009
:103770004A6832FA08F28A603A6812F46052D20A51
:1037800019F80290D1F804A03AFA09FAC1F80CA08D
:103790003F6817F44047BF0BDFF840A01AF807A0B6
:1037A000D1F80CB0BBFBFAFBC1F810B0BDE8F08F4C
:1037B0000A0052B2002A04D0094A13680343136076
:1037C00003E0074A13688343136070470410024004
:1037D00000127A0000093D000401002014010020BD
:1037E00018100240F0B50022002300240025002616
:1037F000002791F803C01CF00F0C91F803E05FEA7A
:10380000CE6E03D591F9022052EA0C0C0A7812060A
:103810002CD00268160000221400082C25D25FF07C
:10382000010E1EFA04F215000A882A401300AB426A
:1038300019D1A20015000F22AA401700BE431CFA9E
:1038400005F2164391F90320282A04D11EFA04FE3A
:10385000C0F814E007E091F90320482A03D11EFACA
:1038600004FEC0F810E0641CD7E706600A88B2F5D1
:10387000807F30DB4268160000221400082C29D219
:103880005FF0010E14F108021EFA02F215000A8818
:103890002A401300AB421BD1A20015000F22AA4000
:1038A0001700BE431CFA05F2164391F90320282A9B
:1038B00004D114F108021EFA02F2426191F90320C8
:1038C000482A05D114F108021EFA02FEC0F810E0E1
:1038D000641CD3E74660F0BD0A0092B202617047F3
:1038E0000A0092B24261704710B400220488434B30
:1038F00098420FD0DFF83C2290420BD0B0F1804FBD
:1039000008D03F4A904205D03E4A904202D03E4AFB
:10391000904204D14FF68F7214404A881443DFF866
:103920000C22904208D0DFF80822904204D04FF6D3
:10393000FF421440CA88144304808A8882850A881A
:10394000028598420FD0DFF8EC2190420BD0DFF8CF
:10395000E821904207D0DFF8E421904203D0DFF85D
:10396000E021904201D10A7A02860122828210BCB3
:103970007047F0B4002600275FF0000C038C4FF670
:10398000EF7213400384038C8488058B48F6FF7222
:1039900015404FF6FF4215400A8855EA02254FF6BA
:1039A000DF7213400A8953EA02134A8853EA02136A
:1039B000124A904203D0DFF88C21904217D14FF683
:1039C0007F7213404A8953EA02134FF6BF721340C5
:1039D0008A8853EA02134FF6FF3214404FF2FF7207
:1039E00014408A8954EA8204CA8954EA8204848091
:1039F0000583CA8802870384F0BC7047002C01400D
:103A00000004004000080040000C00404FF6FF7129
:103A10008180002101800021C1800021418000219E
:103A2000017270470A0052B2002A04D0028852F094
:103A30000102028004E003884FF6FE721340038007
:103A400070470A0052B2002A06D0B0F8442052F45F
:103A50000042A0F8442005E0B0F844205204520C83
:103A6000A0F84420704713005BB2002B03D0838979
:103A70000B43838102E083898B438381704781827A
:103A800070470A0052B2002A04D0028852F0800225
:103A9000028004E003884FF67F7213400380704772
:103AA00010B40023048B4FF2FF72144054EA012437
:103AB000048310BC70470A0092B2002A04D0028826
:103AC00052F00402028004E003884FF6FB721340B8
:103AD0000380704703884FF6F77213400380028813
:103AE0000A4302807047818470478185704701874F
:103AF0007047F0B40200002300260024178A0F400C
:103B000095890D40380080B2002805D0280080B289
:103B1000002801D0012000E0002040B2F0BC704736
:103B20000A0092B2D24302827047000000100040A7
:103B300000140040003401400040014000440140B6
:103B4000004801400034014023490143234A1160E9
:103B50007047F0B4002200230F2490F903100029CD
:103B60001FD01E49096811F4E061D1F5E061090A2E
:103B7000D1F104052B00CC4045789D408678264045
:103B800035432D012A00164D0678AA5501250678E1
:103B900016F01F06B540134E07787F1146F82750E0
:103BA00009E00121057815F01F05A9400E4D0678A2
:103BB000761145F82610F0BC7047042805D10B4952
:103BC0000A6852F004020A6004E008490A6832F008
:103BD00004020A60704700000000FA050CED00E0E6
:103BE00000E400E000E100E080E100E010E000E03F
:103BF0000EB4C0B5024603A800210190009101ABAC
:103C00000121044878440C30FDF75EFD06BC5DF8E8
:103C100010FB00BFA50A0000002902D002EB8103BF
:103C2000586070472DE9FE4F05000E0017009846BA
:103C30005FF0000A00200190002000905FF0000972
:103C40002800FEF78DFD401CFDF706F90400002C4E
:103C500002D15FF0FF302DE0A2462900200000F0E5
:103C6000FDF8A3469BF90000002815D09BF9000041
:103C7000310049B288420CD100208BF800001BF1C2
:103C8000010B424649465046B84719F10109DA4648
:103C9000E8E71BF1010BE5E7424649465046B847C5
:103CA000002C06D0200000F0E5F800208346824674
:103CB00004000020BDE8FE8FF8B504000D002600CA
:103CC000306900F079F90700F06800F075F9012219
:103CD0003900FFF7A2FCF1BDF8B504000D00260085
:103CE0003269F1685748FFF783FF306900F064F9E3
:103CF0000700F06800F060F900223900FFF78DFC42
:103D0000F1BD38B504000D00FFF76BFC31BD38B5CF
:103D100004000D00FFF775FC31BD38B504000D003F
:103D2000FFF775FC31BDF8B504000D00160000204A
:103D30000027AF420BD2E05D202806D13A002100D7
:103D4000300000F03FF9380007E07F1CF1E72A005F
:103D50002100300000F036F92800F2BD2DE9FE43C5
:103D600005000C00684600210022002380E80E00B8
:103D70005FF00008002C2FD06A4621002800FFF7D2
:103D8000D2FF06000027052F26D26846FEF7E8FC82
:103D900002005FF03408DFF8B09008FB07F04844F9
:103DA0004168684600F046F9002813D108FB07F087
:103DB00009EB0003254A20212800FFF733FF2900E3
:103DC00008FB07F0484408FB07F809EB0802126BF0
:103DD000904701E07F1CD6E7BDE8F7832DE9F0416D
:103DE00000F03CF900F0C6F94FF4A060FFF7ACFE1C
:103DF0005FF4613000F0E3F900F076FAFFF7EAFAD9
:103E0000472140F2E730FFF702FB114D28880004FC
:103E1000FBD5288804000F4E31000F48FFF7E8FE5D
:103E200029888904890C3000FFF798FF2700FFB22A
:103E30005FF0000842463900300000F07FFA0020B1
:103E40002880E2E7A046000800000020193C000896
:103E500006050020C0030020244700085FEA000C8C
:103E600011F8012B00F8012B12B111F8012BF9E721
:103E700060467047FDF74BB92DE9F84F84B00E4608
:103E800017460BB100221A600446A04601E008F173
:103E9000010898F8000000F084FA0028F7D198F89B
:103EA00000002D2816BF2B2818F8015B2B25002FAA
:103EB000019603D4012F01D0252F03DB002E55D00E
:103EC000346053E0002F0CDD102F04BF98F8000081
:103ED000302802BF98F8010040F02000782811D166
:103EE0000CE098F80000302818BF0A270AD198F88B
:103EF000010040F02000782803D1102708F10208C3
:103F000000E00827CDF80C8001E008F1010898F8DE
:103F100000003028F9D0064E7E4414364FF00009D8
:103F200006F12800CDF80880CA468DF800000BE0A5
:103F3000780600009DF80010401ACA465FFA80FB20
:103F400007FB09B908F1010898F8000000F033FAFE
:103F500001463A4606F12800FEF726FC0028E9D182
:103F60000399414504D1019800B10460002020E08C
:103F70000299F05DA8EB0101081A002810D406DCB4
:103F8000B9EB0B0103D3B1FBF7F0504508D0AFF309
:103F90000080049808B1012101604FF0FF3903E06F
:103FA0002D2D08BFC9F10009019808B1C0F80080A3
:103FB000484605B0BDE8F08FFFE700230A22002144
:103FC0005AE7000001B58B071AD1830724D1121FCD
:103FD00021D351F8043BA3F1013C2CEA030C1CF063
:103FE000803C04BF40F8043BF1E79CFA8CFCBCFA2F
:103FF0008CF1C1F118018B40CB4040F8043B13E039
:10400000042A09D311F8013B521E00F8013B5BB1B1
:104010008B07F7D1D9E7121D5AB111F8013B521E97
:1040200000F8013B03B1F8D111001CBF002200F0E1
:1040300089F901BD04E010F8013B6BB1491C521E27
:1040400052B10B7890F800C09C45F4D002D24FF0EA
:10405000FF307047012070470020704780B53E490F
:10406000086850F0010008603C4A13683C4803406F
:1040700013600B683B4803400B60086830F48020F5
:104080000860106830F4FE0010605FF41F003649CD
:10409000086000F005F85FF000603449086001BD79
:1040A00080B500F001F801BD82B000200190002031
:1040B00000902949086850F480300860086810F4BE
:1040C000003000900198401C01900098002803D116
:1040D0000198B0F5A06FF1D10868800302D50120E6
:1040E000009001E0002000900098012831D1204884
:1040F000026852F0100202600268920892000260A8
:10410000026852F00202026014480268026002680B
:104110000260026852F480620260026832F47C122B
:104120000260026852F4E81202600A6852F080727B
:104130000A600A689201FCD501688908890001605B
:10414000016851F002010160016811F00C010829B9
:10415000FAD102B070470000001002400410024083
:104160000000FFF8FFFFF6FE0810024008ED00E037
:104170000020024080B57FF00400FFF71EFD0748D5
:1041800007490968074AB1FBF2F1017001784FF461
:104190007A7041430448018001BD000008050020F9
:1041A0001801002000127A0004050020494A1288F4
:1041B0005206FBD50200D2B2474B1A80704738B581
:1041C00086B00400012144F20400FFF7F1FA4FF435
:1041D0000070ADF8000003208DF8020018208DF863
:1041E00003003E4D69462800FFF7FCFA4FF480605B
:1041F000ADF8000004208DF8030069462800FFF7A1
:10420000F1FA25208DF8040003208DF80500032025
:104210008DF8060001208DF8070001A8FFF799FC32
:1042200002940020ADF80C000020ADF80E00002034
:10423000ADF810000020ADF814000C20ADF812000D
:10424000244D02A9280000F0C1F8012240F22551B6
:10425000280000F038F90121280000F025F907B006
:1042600030BD38B51B4D40F22551280000F067F9EC
:1042700000282CD0280000F05EF9040018480188BE
:10428000090424D4018849040BD52100C9B20A29A4
:1042900002D0002101801AE0018851F40041018020
:1042A00015E02100C9B20D2904D1018851F48041E3
:1042B00001800CE00B4902889204920C8C54018816
:1042C000491C01800188C82901DB0021018031BD22
:1042D000000000000038014004380140000801409F
:1042E00006050020C00300201CB501212420FFF793
:1042F0005FFA4FF48070ADF8000010208DF80300D5
:1043000003208DF802000B4C69462000FFF76AFA83
:104310004FF480712000FFF7DFFA0420ADF80000B1
:10432000054C69462000FFF75DFA04212000FFF7E5
:10433000D3FA13BD000801400014014062F30F22BC
:1043400062F31F42401810F0030308D0C91A1FD3AC
:10435000DB0748BF00F8012D28BF20F8022D13000D
:1043600030B414461546103928BF20E93C00FAD86D
:10437000490728BF20E90C0048BF40F8042D8900F8
:1043800028BF20F8022D48BF00F8012D30BC70472F
:10439000C91818BF00F8012DCB0728BF00F8012D60
:1043A000704710B50446FEF765F901462046096AD4
:1043B000BDE81040084710B50446FEF75BF901461A
:1043C0002046896ABDE81040084700002DE9F84FF3
:1043D00086B004000D00002600275FF000085FF0A3
:1043E00000095FF0000AA8890028A346218A4CF63C
:1043F000FF700140E8880143009100982082A18964
:104400004EF6F3100140AA882889024368890243C6
:10441000114300910098A081A18A4FF6FF4001400E
:10442000A889014300910098A08201A8FFF754F9E0
:104430001C48834501D1049900E00399A089000438
:1044400007D5192000FB01F02A685200B0FBF2F2F8
:1044500006E0192000FB01F02A689200B0FBF2F29E
:104460006420B2FBF0F6360133001B09642000FB28
:104470001323A089000408D5D80032306427B0FB8C
:10448000F7F010F00700064307E018013230642708
:10449000B0FBF7F010F00F000643268107B0BDE82F
:1044A000F08F0000003801400A0052B2002A04D008
:1044B000828952F40052828104E083894DF6FF72B2
:1044C0001340838170472DE9F04100230025002728
:1044D0005FF0000E0C0040F66A16A4B2B4428046AB
:1044E0000C00E4B26409E4B20E00B6B216F01F0686
:1044F0005FF0010C1CFA06FC012C02D118F10C082B
:1045000006E0022C02D118F1100801E018F114089D
:1045100013005BB2002B06D0D8F800305CEA03032E
:10452000C8F8003005E0D8F8003033EA0C03C8F8CA
:104530000030BDE8F0818088C005C00D7047F0B440
:10454000040000270020002200260B0040F66A1518
:104550009BB2AB420D00EDB26D09EDB20B009BB208
:1045600013F01F035FF0010C1CFA03F3012D02D1BD
:10457000A089034006E0022D02D1208A034001E019
:10458000A08A03400A0092B2120A92B21CFA02F206
:1045900020880240002B03D0002A01D0012000E037
:1045A000002040B2F0BC704700002115110E0D0C28
:1045B0000B0B0A0A0909090909080808080808086C
:1045C0000707070707070707070707070700000090
:1045D0003031323334353637383961626364656679
:1045E0006768696A6B6C6D6E6F70717273747576E3
:1045F0007778797A000000000D0A546865206E759E
:104600006D2073686F756C642062652067726561E8
:10461000746572207468616E207A65726F21210D55
:104620000A00000010B5074979441831064C7C4453
:10463000163404E00A68081D114488470146A14267
:10464000F8D110BD0800000024000000C3DFFFFF08
:1046500024030000E801002000000000BBCFFFFFA2
:10466000C4010000520100000000002000F00DF81D
:10467000002801D0FFF7D6FFAFF300800020AFF392
:104680000080FFF7ABFB00F002F80120704700F05C
:1046900001B8000007463846FDF710F8FBE70000B8
:1046A0007061726130202573202020706172613149
:1046B0002025730D0A00000038B504460D46284633
:1046C00000F006F8A84218BF0024204632BD0000C2
:1046D0000149FFF76BBD00BF9C010020637572723A
:1046E000656E745F706F733D256C640D0A00000089
:1046F00001488047014800475D4000080147000825
:10470000AFF30080AFF30080FFF7B0FF73746F70FA
:10471000000000006C6F636B00000000756E6C6F32
:10472000636B000025730D0A0000000000002E00DE
:10473000430000006677640072657600FFF7FEBFF5
:10474000FFF7FEBFFFF7FEBFFFF7FEBFFFF7FEBF9D
:10475000FFF7FEBFFFF7FEBFFFF7FEBFFFF7FEBF8D
:10476000FFF7FEBFFFF7FEBFFFF7FEBFFFF7FEBF7D
:10477000FFF7FEBFFFF7FEBFFFF7FEBFFFF7FEBF6D
:10478000FFF7FEBFFFF7FEBFFFF7FEBFFFF7FEBF5D
:10479000FFF7FEBFFFF7FEBFFFF7FEBFFFF7FEBF4D
:1047A000FFF7FEBFFFF7FEBFFFF7FEBFFFF7FEBF3D
:1047B000FFF7FEBFFFF7FEBFFFF7FEBFFFF7FEBF2D
:1047C000FFF7FEBFFFF7FEBFFFF7FEBFFFF7FEBF1D
:1047D000FFF7FEBFFFF7FEBFFFF7FEBFFFF7FEBF0D
:1047E000FFF7FEBFFFF7FEBFFFF7FEBFFFF7FEBFFD
:1047F000FFF7FEBFFFF7FEBFFFF7FEBFFFF7FEBFED
:10480000FFF7FEBFFFF7FEBFFFF7FEBFFFF7FEBFDC
:10481000FFF7FEBFFFF7FEBFFFF7FEBFFFF7FEBFCC
:10482000FFF7FEBFF0081501000000344700080A3A
:1048300028041003B93C00080234F21A383412D9A3
:1048400034120334F21A0C341003033D000804340C
:10485000F21A1434120F34120534F21A1C34121BDB
:104860003412000120020102030404100B060708A1
:10487000090204060800A24A042C48F1070452FF6A
:1048800001F2002E1410010000300C2558F0030234
:104890001C0100200001100355260008490443694B
:1048A000267C21014315270C4303273C21011007D7
:1048B0000204010188040020D804528804211B61ED
:0D48C0000812E060F206CC64A101030101C2
:0400000508004701A7
:00000001FF
